:020000040800F2
:100000004009002015020008BD0F0008410E00083D
:100010002D0F000821060008A3270008000000009B
:10002000000000000000000000000000351400087F
:100030002506000800000000F51100084915000819
:100040002F0200082F0200082F0200082F020008CC
:100050002F0200082F0200082F0200082F020008BC
:100060002F0200082F0200082F0200082F020008AC
:100070002F0200082F0200082F0200082F0200089C
:100080002F0200082F0200082F0200082F0200088C
:100090002F0200082F0200082F0200082F0200087C
:1000A0002F020008BD1800082F0200082F020008C8
:1000B0000D1A00082D1B00082F0200082F0200084F
:1000C0002F0200082F0200082F0200082F0200084C
:1000D0002F0200082F0200082F0200083D2400080C
:1000E0002F0200082F0200082F0200082F0200082C
:1000F0001D1E00082F0200082F0200082F02000812
:100100002F0200082F0200082F0200082F0200080B
:100110002F0200082F020008CD1B00081D1D00083B
:100120002F0200082F0200082F0200082F020008EB
:1001300000F002F800F05FF80AA090E8000C82449A
:100140008344AAF10107DA4501D100F054F8AFF277
:10015000090EBAE80F0013F0010F18BFFB1A43F0A5
:10016000010318477C4600009C4600000A444FF0FB
:10017000000C10F8013B13F0070408BF10F8014B06
:100180001D1108BF10F8015B641E05D010F8016B4B
:10019000641E01F8016BF9D113F0080F1EBF10F8AF
:1001A000014BAD1C0C1B09D16D1E58BF01F801CBD2
:1001B000FAD505E014F8016B01F8016B6D1EF9D555
:1001C0009142D6D37047000000230024002500266A
:1001D000103A28BF78C1FBD8520728BF30C148BFAA
:1001E0000B607047642900F09B80002070471FB5AA
:1001F0001FBD10B510BD00F0E5F91146FFF7F7FF80
:1002000002F0E0FE00F003FA03B4FFF7F2FF03BCD4
:1002100002F0FEFD0948804709480047FEE7FEE777
:10022000FEE7FEE7FEE7FEE7FEE7FEE7FEE7FEE7A6
:1002300004480549054A064B704700004D15000863
:100240003101000840030020400900204005002043
:1002500040050020704710B54C1084EA530404D5C3
:100260004042C1F1000138BF491E1B4204D5524231
:10027000C3F1000338BF5B1E00F092F814F0804F0A
:1002800004D04042C1F1000138BF491E14F0004FB4
:1002900004D05242C3F1000338BF5B1E10BD000002
:1002A0000FB4044910B503AA029800F055F910BC28
:1002B0005DF814FBAC0100202DE9F0410E46044628
:1002C000002020622046E168884730B3252805D009
:1002D000D4E901219047206A401CF2E7E1682046FA
:1002E00000278847050018D0A5F14100192802D839
:1002F00020354FF400673246294620462760FFF735
:1003000071FF40B1012804D0F61D26F0070608361B
:10031000D8E7361DD6E72846DAE7206ABDE8F0813F
:100320002DE9F0410646002410687529314616A5CE
:1003300010D0AFF30080002802DA404213A507E096
:1003400031688A0701D512A502E0490704D511A535
:10035000012401E0AFF3008000210A2206F1240706
:1003600009E0B0FBF2FCB0FBF2F302FB1C00303002
:1003700078541846491C0028F3D123462A463046B3
:10038000BDE8F04100F08EB8000000002D00000034
:100390002B00000020000000704770477047704736
:1003A00053EA020C00F069802DE9F04B4FF0000693
:1003B000002B1FBFB3FA83F503FA05F424FA05F600
:1003C0005E4012BF1643B2FA82F502FA05F4C5F197
:1003D00020051EBF22FA05FC44EA0C04203556EA2B
:1003E000044C4FEA144418BF641C4FF000084FF04F
:1003F0000009904271EB030C39D3002919BFB1FAFF
:1004000081F701FA07F6B0FA80F700FA07F6C7F1AC
:1004100020071EBF20FA07FC46EA0C062037B6FB71
:10042000F4FCA7EB0507103F07F01F0BCBF12006EC
:100430000CFA0BFB2CFA06F644BFB3460026202F1D
:10044000A4BF5E464FF0000B5BEA060C08BF4FF0FE
:10045000010B19EB0B09ABFB027C48EB0608C01B38
:1004600006FB02CC0BFB03CC71EB0C01C1E70B4686
:10047000024641464846BDE8F08B13B54FF00000F8
:100480004FF00001AFF30080BDE81C40704710B58D
:1004900000F074F8006810BD10B5044600F06EF866
:1004A000046010BD2DE9F0470D469946924604467A
:1004B00000F124080168880604D5E06921F01001E4
:1004C000216000E00120A84201DD471B00E0002779
:1004D000A1697A1902EB0900081AA0612078C00608
:1004E00002D42046AFF30080002608E0D4E90121C1
:1004F0001AF806009047206A401C761C20624E4580
:10050000F4DB2078C0060AD52046AFF3008006E071
:10051000D4E9012130209047206A401C2062381E17
:10052000A7F10107F4DC07E0D4E9012118F8050080
:100530009047206A401C2062281EA5F10105F3DCCB
:100540002046AFF300802078000602D50220BDE8E7
:10055000F0870120FBE70000074B70B50D467B4498
:1005600000F015F80446284600F024F810B14FF0CA
:10057000FF3070BD204670BD472A0000004870471C
:10058000DC02002001694A1C02610878704700B54E
:100590008FB0CDE901310021059105497944CDE9BC
:1005A000031011466846FFF787FE0FB000BD00003C
:1005B000E5FFFFFF007B00F08000704700487047B8
:1005C000DC0200207546FFF7F9FFAE4605006946DC
:1005D000534620F00700854618B020B5FFF728FEE7
:1005E000BDE820404FF000064FF000074FF0000834
:1005F0004FF0000B21F00701AC46ACE8C009ACE8B5
:10060000C009ACE8C009ACE8C0098D46704710B518
:100610000446AFF300802046BDE81040FFF7F4BD6C
:1006200000BFFEE7704700002DE9FF5F00210C4688
:100630000D460E460F4688468946029103918A462A
:100640001EE0694850F82A00041945EBE075674838
:1006500050F82A108E1947EBE177654850F82A00C8
:1006600010EB080849EBE079624850F82A20DDE9F0
:100670000201101841EBE273CDE902030AF1010A0D
:10068000BAF1030FDDD30322002320462946FFF7EA
:10069000E2FD04460D460322002330463946FFF7AB
:1006A000DAFD06460F460322002340464946FFF77F
:1006B000D2FD8046894603220023DDE90201FFF7CF
:1006C000CAFDCDE90201C8214FF0000C2246A2FB71
:1006D000013B05FB01B104FB0C103C220021A3FBF4
:1006E00002CB00FB02B003FB01004FF4B4720B46D7
:1006F000CDE900C060460199FFF7ADFD0446C82171
:100700004FF0000C3246A2FB013B07FB01B106FB98
:100710000C123C20A3FB001B02FB00B003FB0C00EF
:100720004FF4B4726346CDE9001008460199FFF713
:1007300092FD0646C8224FF0000C4346A3FB020B75
:1007400009FB02B108FB0C133C22A0FB021B03FBBC
:1007500002B200FB0C204FF4B4726346CDE90010E6
:1007600008460199FFF777FD8046C8230022DDE99E
:10077000020CA0FB031B0CFB03B300FB023C3C235D
:1007800010460A466146A2FB03CB01FB03B102FB04
:1007900000104FF4B4720023CDE900C06046019907
:1007A000FFF759FD029020B21349086030B2134997
:1007B00008600FFA88F012490860029800B21149E7
:1007C00008600D480068104908600C4800680F492F
:1007D00008600B4800680E4908600A4800680D4927
:1007E0000860BDE8FF9F0000E4010020F001002048
:1007F000FC010020080200206C0000207000002096
:1008000074000020780000207C0000208000002080
:10081000840000208800002070B51C48007838BB98
:100820001B4802884FF08040848C0020184E308096
:100830004FF08040808C03B24FF08040008800F081
:100840001000102809D113480068201AC2EB0216C4
:1008500006EB4606C0EBC60108E00E480068201A09
:10086000C2EB021606EB460600EBC6010D4609E098
:100870000020064E30700025054E30804FF080403D
:10088000808C03B20348036028B270BD340100209D
:100890008C0000204C00002070B51B48007828BB5D
:1008A0001A4802881A4804880020184E30801848D8
:1008B000008803B216482438008800F01000102881
:1008C00009D114480068201AC2EB021606EB46064E
:1008D000C0EBC60108E00F480068201AC2EB021600
:1008E00006EB460600EBC6010D4608E00020064E6A
:1008F00030700025054E30800548008803B2054859
:10090000036028B270BD0000350100208E00002079
:10091000240400405000002070B51B48007828BB1C
:100920001A4802881A4804880020184E3080184857
:10093000008803B216482438008800F01000102800
:1009400009D114480068201AC2EB021606EB4606CD
:10095000C0EBC60108E00F480068201AC2EB02167F
:1009600006EB460600EBC6010D4608E00020064EE9
:1009700030700025054E30800548008803B20548D8
:10098000036028B270BD00003601002090000020F6
:10099000242C01405400002070B51B48007828BB6F
:1009A0001A4802881A4804880020184E30801848D7
:1009B000008803B216482438008800F01000102880
:1009C00009D114480068201AC2EB021606EB46064D
:1009D000C0EBC60108E00F480068201AC2EB0216FF
:1009E00006EB460600EBC6010D4608E00020064E69
:1009F00030700025054E30800548008803B2054858
:100A0000036028B270BD0000370100209200002072
:100A1000243401405800002000200DE000210B4A42
:100A200042F820100A4A42F820100A4A42F82010E0
:100A3000094A42F82010401C0328EFD30121074A3D
:100A40001170074A1170117011707047E401002095
:100A5000F0010020FC0100200802002034010020E9
:100A60003501002010B500F053FF00F0F7FF00F053
:100A7000BDFE01F069F901F083F8FFF7CDFF10BD6D
:100A80002DE9F04102460025002600200023002425
:100A9000002791F803C00CF00F0591F803C00CF08B
:100AA000100CBCF1000F03D091F802C04CEA050510
:100AB00091F800C0BCF1000F31D0146800202BE089
:100AC0004FF0010C0CFA00F3B1F800C00CEA030679
:100AD0009E4220D183004FF00F0C0CFA03F7BC4369
:100AE00005FA03FC4CEA040491F803C0BCF1280F9A
:100AF00006D14FF0010C0CFA00FCC2F814C00AE059
:100B000091F803C0BCF1480F05D14FF0010C0CFA6D
:100B100000FCC2F810C0401C0828D1D31460B1F802
:100B200000C0BCF1FF0F34DD546800202EE000F15E
:100B3000080C4FF0010808FA0CF3B1F800C00CEAF9
:100B400003069E4221D183004FF00F0C0CFA03F7ED
:100B5000BC4305FA03FC4CEA040491F803C0BCF161
:100B6000280F05D100F1080C08FA0CF8C2F814801F
:100B700091F803C0BCF1480F07D100F1080C4FF009
:100B8000010808FA0CF8C2F81080401C0828CED3DF
:100B90005460BDE8F0810000F0B50A46002300244F
:100BA0000021002500F00046B6F1004F02D11D4E95
:100BB000F16901E01B4E7168C0F3034583B200F494
:100BC0004016B6F5401F08D121F07061154E7668C9
:100BD00026F07066134F7E6012E000F48016B6F5C2
:100BE000801F06D1032606FA05F4A14341F0706187
:100BF00006E0460D360103FA06F6B14341F0706196
:100C000022B1460D360103FA06F6314300F00046E4
:100C1000B6F1004F02D1034EF16101E0014E716067
:100C2000F0BD000000000140416170470161704764
:100C300070B51848006818490968401A17490860D3
:100C40001748006803F006FB05462946154800F0E2
:100C500063FA044614480168204603F077F9124904
:100C6000086012491048006803F008FC02D20F48DF
:100C70000D49086000210C48006803F0FFFA02D219
:100C80000020094908600848006803F0ABFA0849E9
:100C9000088070BD800000207C00002044000020FF
:100CA0006C00002094000020240100200000614519
:100CB0003C08004070B51848006818490968401A97
:100CC000174908601748006803F0C4FA054629462A
:100CD000154800F021FA044614480168204603F044
:100CE00035F91249086012491048006803F0C6FB44
:100CF00002D20F480D49086000210C48006803F03B
:100D0000BDFA02D20020094908600848006803F0D3
:100D100069FA0849088070BD7C000020800000202E
:100D20004400002070000020B800002028010020AE
:100D3000000061454008004070B518480068184937
:100D40000968401A174908601748006803F082FADA
:100D500005462946154800F0DFF9044614480168A5
:100D6000204603F0F3F81249086012491048006861
:100D700003F084FB02D20F480D49086000210C48A3
:100D8000006803F07BFA02D2002009490860084895
:100D9000006803F027FA0849088070BD8800002029
:100DA0008400002044000020740000200001002086
:100DB0002C010020000061453C0C004070B5184833
:100DC000006818490968401A174908601748006800
:100DD00003F040FA05462946154800F09DF90446FF
:100DE00014480168204603F0B1F81249086012491E
:100DF0001048006803F042FB02D20F480D4908601A
:100E000000210C48006803F039FA02D20020094999
:100E100008600848006803F0E5F90849088070BDDB
:100E2000840000208800002044000020780000207A
:100E3000DC0000203001002000006145400C004033
:100E400000BFFEE710B5044642F2107084420FD98D
:100E500001211748FFF7EAFE02211548FFF7E4FEDB
:100E6000A4F51C50103803F0F5F9124908621EE091
:100E700042F2107084420FD201210D48FFF7D4FED8
:100E800002210B48FFF7D2FE42F21071081B03F05B
:100E9000E1F9084908620AE001210548FFF7C6FEAA
:100EA00002210348FFF7C2FE00200249086210BD7C
:100EB000001001409400002010B5044642F210706A
:100EC00084420FD910211748FFF7B0FE20211548A2
:100ED000FFF7AAFEA4F51C50103803F0BBF9124925
:100EE00008621EE042F2107084420FD210210D48B9
:100EF000FFF79AFE20210B48FFF798FE42F210718F
:100F0000081B03F0A7F9084908620AE01021054808
:100F1000FFF78CFE20210348FFF788FE00200249DE
:100F2000086210BD00100140DC00002000BFFEE799
:100F300008B50121102000F07FF90F20ADF8000066
:100F400010208DF8030003208DF80200694619482F
:100F5000FFF796FD0F211748FFF766FE01211020CD
:100F600000F06AF93020ADF8000010208DF8030081
:100F700003208DF8020069460E48FFF781FD3021FD
:100F80000C48FFF751FE0121202000F055F9C02048
:100F9000ADF8000010208DF8030003208DF802004A
:100FA00069460548FFF76CFDC0210348FFF73CFE8A
:100FB00008BD00000010014000140140704708B552
:100FC0004FF4A06000F09EF827208DF8000000206C
:100FD0008DF8010001208DF802008DF803006846AD
:100FE00000F058F81C208DF8000001208DF8010059
:100FF00002208DF8020001208DF80300684600F001
:1010000049F81D208DF8000001208DF801008DF8B1
:1010100002008DF80300684600F03CF836208DF899
:10102000000002208DF8010001208DF802008DF8EB
:101030000300684600F02EF837208DF800000320EA
:101040008DF8010001208DF802008DF8030068463C
:1010500000F020F819208DF8000001208DF8010023
:1010600000208DF8020001208DF80300684600F092
:1010700011F82C208DF8000001208DF801000320CC
:101080008DF8020001208DF80300684600F002F898
:1010900008BD000070B5002100230F22C47804B3FE
:1010A000154C246804F4E064C4F5E064210AC1F13D
:1010B0000403CA40447804FA03F1847814402143BD
:1010C00009010E4C0678A155047804F01F0501248F
:1010D000AC4005786D11AD0005F1E025C5F8004183
:1010E00009E0047804F01F050124AC40044D0678A3
:1010F000761145F8264070BD0CED00E000E400E0FC
:1011000080E100E002490143024A1160704700009B
:101110000000FA050CED00E02DE9F04704460F460B
:10112000002003F07FF880463946206A03F0D8F9A2
:101130008246414602F00AFFE060E168206803F061
:10114000D1F88146A06903F06DF88246E16802F0AB
:10115000FDFE804603F02AF8A0612149E06908609D
:1011600020491F48006803F089F905D31E491C482F
:10117000006803F083F801D200206060A06903F0EA
:1011800051F88046616803F0ADF80546D4E90301E3
:1011900003F0A6F98046A16803F0A4F80646E068CB
:1011A00020612946484602F0D1FE8046314602F0D1
:1011B000CDFEE0610D49E069096803F05FF902D2F4
:1011C0000A480068E0610A49E069096803F056F8D6
:1011D00002D207480068E061E069BDE8F0870000DE
:1011E000A80100200000A0400000A0C0A001002035
:1011F000A40100207047000029B1064AD2690243C9
:10120000044BDA6104E0034AD2698243014BDA619C
:10121000704700000010024029B1064A12690243DB
:10122000044B1A6104E0034A12698243014B1A61BC
:10123000704700000010024029B1064A926902433B
:10124000044B9A6104E0034A92698243014B9A611C
:10125000704700000010024029B1064AD2680243DC
:10126000044BDA6004E0034AD2688243014BDA603F
:10127000704700000010024030B500210022002419
:1012800000232D4D6D6805F00C0121B1042905D016
:10129000082923D105E0294D056022E0274D05608E
:1012A0001FE0254D6D6805F47012234D6D6805F43F
:1012B0008034022505EB92421CB9214D554305604F
:1012C0000BE01D4D6D6805F400351DB11C4D5543F7
:1012D000056002E0194D5543056002E0174D0560B9
:1012E00000BF00BF144D6D6805F0F0010909154DF0
:1012F0006B5C0568DD4045600F4D6D6805F4E0618D
:10130000090A104D6B5C4568DD4085600A4D6D68CB
:1013100005F46051C90A0B4D6B5C4568DD40C56042
:10132000054D6D6805F44041890B074D6B5CC56840
:10133000B5FBF3F5056130BD0010024000127A00E4
:1013400000093D00B8010020C801002010B5044686
:1013500042F2107084420FD904211748FFF766FC4F
:1013600008211548FFF760FCA4F51C50103802F066
:1013700071FF124908621EE042F2107084420FD2DF
:1013800004210D48FFF750FC08210B48FFF74EFCE5
:1013900042F21071081B02F05DFF084908620AE082
:1013A00004210548FFF742FC08210348FFF73EFCF3
:1013B00000200249086210BD00100140B800002062
:1013C00010B5044642F2107084420FD940211748EC
:1013D000FFF72CFC80211548FFF726FCA4F51C50D4
:1013E000103802F037FF124908621EE042F2107016
:1013F00084420FD240210D48FFF716FC80210B4894
:10140000FFF714FC42F21071081B02F023FF084999
:1014100008620AE040210548FFF708FC80210348E4
:10142000FFF704FC00200249086210BD00140140CF
:1014300000010020704710B500F002F810BD000058
:101440000CB50020019000903348006840F48030D3
:101450003149086000BF3048006800F40030009057
:101460000198401C0190009818B90198B0F5A06F40
:10147000F1D12948006800F4003010B1012000903B
:1014800001E0002000900098012843D12348006823
:1014900040F01000214908600846006820F0030071
:1014A00008600846006840F0020008601A4840687A
:1014B000194948600846406848600846406840F45A
:1014C000806048600846406820F47C104860084608
:1014D000406840F4E81048600846006840F08070BA
:1014E000086000BF0C48006800F000700028F9D0C8
:1014F0000948406820F003000749486008464068F2
:1015000040F00200486000BF0348406800F00C0053
:101510000828F9D10CBD0000001002400020024054
:10152000042808D14FF0E021096941F004014FF08F
:10153000E022116107E04FF0E021096921F0040188
:101540004FF0E022116170477047000010B513485A
:10155000006840F0010011490860084640681049E1
:1015600008400E494860084600680E4908400B498B
:1015700008600846006820F480200860084640683B
:1015800020F4FE0048604FF41F008860FFF753FF0F
:101590004FF000600449086010BD000000100240D8
:1015A0000000FFF8FFFFF6FE08ED00E0F0B50C4686
:1015B000154600220021068C4FF6FE773E40068439
:1015C000028B018C4FF60C7632407E1C06EA031625
:1015D0002E433243104EB0420ED0104EB0420BD0CC
:1015E000B0F1804F08D00E4EB04205D00D4EB04243
:1015F00002D00D4EB04206D14FF6FD76314044F098
:101600000106314305E04FF6F576314044F001061E
:10161000314302830184F0BD002C014000340140BD
:101620000004004000080040000C0040F0B50C46EB
:101630001546002200210026078C4FF6EF7C07EAB2
:101640000C070784028B018C4FF6FF7707EA04161C
:1016500040F6FF473A404FF6FF7707EA03373A4331
:101660004FF6FF7707EA05273A43114FB8420ED0ED
:10167000104FB8420BD0B0F1804F08D00E4FB84297
:1016800005D00E4FB84202D00D4FB84206D14FF6EA
:10169000DF77394046F01007394305E04FF65F77B2
:1016A000394044F01007394302830184F0BD000043
:1016B000002C0140003401400004004000080040BC
:1016C000000C0040F0B50C46154600220021002613
:1016D000078C4FF6FF6C07EA0C070784828B018C9E
:1016E0004FF6FF7707EA04264FF60C773A404FF69D
:1016F000FF7707EA03172F433A43114FB8420ED042
:10170000104FB8420BD0B0F1804F08D00E4FB84206
:1017100005D00E4FB84202D00D4FB84206D14FF659
:10172000FF57394046F48077394305E04FF2FF57C1
:10173000394044F48077394382830184F0BD00004E
:10174000002C01400034014000040040000800402B
:10175000000C0040F0B50C46154600220021002682
:10176000078C4EF6FF7C07EA0C070784828B018CFE
:101770004FF6FF7707EA043640F6FF473A404FF648
:10178000FF7707EA05273A434FF6FF7707EA033763
:101790003A43114FB8420ED0104FB8420BD0B0F1BF
:1017A000804F08D00E4FB84205D00E4FB84202D03D
:1017B0000D4FB84206D14DF6FF77394046F48057B9
:1017C000394305E047F6FF57394044F48057394321
:1017D00082830184F0BD0000002C014000340140F0
:1017E0000004004000080040000C004000B587B035
:1017F0000121C802FFF720FD01210420FFF71CFD95
:101800004FF48070ADF8180004208DF81B00032001
:101810008DF81A0006A92748FFF732F94FF4007037
:10182000ADF8180004208DF81B0003208DF81A0075
:1018300006A92048FFF724F94FF6FF70ADF8100015
:101840000020ADF80C00ADF81200ADF80E008DF8D8
:10185000140003A9184800F051FD0A231A46032179
:10186000154800F023FB0020ADF800000A20ADF879
:1018700002000120ADF804000020ADF806000120B0
:10188000ADF8080069460C4800F042FB01210A4807
:1018900000F0FAFA01221146074800F08FFB002100
:1018A000054800F0FDFC0121034800F0F3FA07B001
:1018B00000BD000000080140002C014010B50121CE
:1018C000094800F0E1FA094800884FF6FF718842A4
:1018D00009D006480088401C044908800846018851
:1018E00003A0FEF7DDFC10BD002C0140900000209D
:1018F00068456E636F6465725F54696D65725F4FB2
:10190000766572666C6F77333D25640D0A000000C2
:1019100000B587B001210846FFF78EFC012137484A
:10192000FFF73AF901210846FFF766FC0121084656
:10193000FFF782FC01213248FFF72EF90121042034
:10194000FFF77AFC4FF40040ADF8180004208DF842
:101950001B0003208DF81A0006A92A48FFF790F80B
:1019600001210820FFF768FC0820ADF818000420CA
:101970008DF81B0003208DF81A0006A92248FFF7F6
:101980007FF84FF6FF70ADF810000020ADF80C00A6
:10199000ADF81200ADF80E0003A94FF0804000F042
:1019A000ADFC0A231A460321580700F07FFA0020F5
:1019B000ADF800000A20ADF802000120ADF80400E7
:1019C0000020ADF806000120ADF808006946800748
:1019D00000F09EFA0121880700F056FA0122114614
:1019E000900700F0EBFA00214FF0804000F058FC27
:1019F0000121880700F04EFA07B000BD0001180071
:101A00000002300000080140000C014010B5012127
:101A1000880700F039FA084800884FF6FF718842BD
:101A200009D005480088401C034908800846018801
:101A300002A0FEF735FC10BD8C00002068456E63E7
:101A40006F6465725F54696D65725F4F766572662B
:101A50006C6F77323D25640D0A00000000B587B039
:101A600001210220FFF7C8FB01210420FFF7E4FB5E
:101A70004020ADF8180004208DF81B0003208DF8DD
:101A80001A0006A92748FEF7FBFF01210420FFF7F3
:101A9000D3FB8020ADF8180004208DF81B00032034
:101AA0008DF81A0006A91F48FEF7EAFF4FF6FF70EF
:101AB000ADF810000020ADF80C00ADF81200ADF844
:101AC0000E0003A9184800F019FC0A231A46032146
:101AD000154800F0EBF90020ADF800000A20ADF841
:101AE00002000120ADF804000020ADF8060001203E
:101AF000ADF8080069460C4800F00AFA01210A48CE
:101B000000F0C2F901221146074800F057FA0021FF
:101B1000054800F0C5FB0121034800F0BBF907B000
:101B200000BD0000000801400004004010B5012184
:101B3000094800F0A9F9094800884FF6FF7188426A
:101B400009D006480088401C0449088008460188DE
:101B500003A0FEF7A5FB10BD000400408E0000208E
:101B600068456E636F6465725F54696D65725F4F3F
:101B7000766572666C6F77313D25640D0A00000052
:101B80000EB501211020FFF737FB4FF47A60ADF856
:101B900004000820ADF800000020ADF80200ADF808
:101BA00006006946084800F0A9FB0121064800F03C
:101BB0006BF901221146044800F000FA01210248A5
:101BC00000F068F90EBD0000001000402DE9F04162
:101BD0000121334800F08BF900285FD0314800889C
:101BE00028B130480088401E2E49088052E0092064
:101BF0002C490880FEF710FE0446FEF74DFE054610
:101C0000FEF78AFE0646FEF7C7FE0746204602F0AC
:101C100009FB25490860284602F004FB23490860B7
:101C2000304602F0FFFA22490860384602F0FAFA1C
:101C3000204908602048007840F002001E490870E2
:101C40001E481F49097840F821401E481C49097860
:101C500040F821501C481A49097840F821601B4877
:101C60001749097840F8217015480078401C14493C
:101C7000087008460078032801DB00200870FEF792
:101C8000D3FCFEF7D5FFFFF715F8FFF755F8FFF780
:101C900095F800BF0121024800F0F9F8BDE8F08195
:101CA00000100040400000205C0000206000002088
:101CB00064000020680000200C000020E4010020E7
:101CC00048000020F0010020FC0100200802002054
:101CD0000EB501212020FFF78FFA4FF4FA70ADF80E
:101CE000040041F61F40ADF800000020ADF80200EE
:101CF000ADF806006946084800F000FB01210648DF
:101D000000F0C2F801221146034800F057F9012102
:101D1000014800F0BFF80EBD0014004010B50121CD
:101D2000074800F0E4F848B10648007840F00100A8
:101D3000044908700121024800F0A9F810BD000014
:101D4000001400400C00002000B587B001214803BA
:101D5000FFF772FA01211020FFF76EFA4020ADF86C
:101D6000180004208DF81B0003208DF81A0006A926
:101D70002848FEF785FE01211020FFF75DFA80203C
:101D8000ADF8180004208DF81B0003208DF81A0010
:101D900006A92048FEF774FE4FF6FF70ADF810005C
:101DA0000020ADF80C00ADF81200ADF80E008DF873
:101DB000140003A9184800F0A1FA0A231A460321C7
:101DC000154800F073F80020ADF800000A20ADF8C7
:101DD00002000120ADF804000020ADF8060001204B
:101DE000ADF8080069460C4800F092F801210A4855
:101DF00000F04AF801221146074800F0DFF8002100
:101E0000054800F04DFA0121034800F043F807B0FF
:101E100000BD0000001001400034014010B5012158
:101E2000094800F031F8094800884FF6FF718842F0
:101E300009D006480088401C0449088008460188EB
:101E400003A0FEF72DFA10BD0034014092000020DF
:101E500068456E636F6465725F54696D65725F4F4C
:101E6000766572666C6F77343D25640D0A0000005C
:101E700021B1028842F08002028004E002884FF61D
:101E80007F731A4002807047CA4302827047CA4378
:101E90000282704721B1028842F00102028004E010
:101EA00002884FF6FE731A4002807047F0B50C4668
:101EB00015461E460021002200230189028B038C57
:101EC0004FF6F877394021434FF6FC473A4040F24D
:101ED00001173A434FF6DD773B404FF6FF7707EAAD
:101EE00006172F433B43018102830384F0BD30B5C5
:101EF0000246002000230024158A05EA0103958983
:101F000005EA010413B10CB1012000E0002030BD4E
:101F100070B505460C46244885420ED023488542BC
:101F20000BD0B5F1804F08D02148854205D021481B
:101F3000854202D02048854200D100E000BF2088C1
:101F400050B92389A28861882846FFF72FFBE188D2
:101F5000284600F0A7F925E0208804280AD1238923
:101F6000A28861882846FFF761FBE188284600F0D7
:101F7000A2F917E0208808280AD12389A28861885D
:101F80002846FFF79FFBE188284600F0A1F909E009
:101F90002389A28861882846FFF7DCFBE188284670
:101FA00000F09FF970BD0000002C0140003401409A
:101FB0000004004000080040000C00401AB1838972
:101FC0000B43838102E083898B4383817047000048
:101FD00070B5002400220023058C4FF6FF663540C3
:101FE0000584028C8388848B4FF68F752C404FF6C6
:101FF000FC752C400D882C434FF6FF552A400D8967
:102000004FF6FF7606EA05252A434D8806EA0525A0
:102010002A43154DA84202D0144DA8421DD14FF2BB
:10202000FF752A404D894FF6FF7606EA05252A43BB
:102030004FF6FF352A408D8806EA05252A434EF6DD
:10204000FF752B404DF6FF752B408D8906EA05156F
:102050002B43CD8906EA05152B4383808483CD88E5
:102060008587028470BD0000002C014000340140CF
:102070000A460021818B4FF6F77319401143818383
:102080007047000070B5002200230024058C4EF636
:10209000FF7635400584038C8488828B48F6FF7573
:1020A0002A404FF6FF452A400D884FF6FF7606EA94
:1020B00005252A434DF6FF752B400D8906EA0535A7
:1020C0002B434D8806EA05352B430B4DA84202D021
:1020D0000A4DA84208D14BF6FF752C408D894FF66A
:1020E000FF7606EA85152C4384808283CD88A0F88C
:1020F0004050038470BD0000002C014000340140BA
:102100000A460021818B4FF2FF7319404FF6FF738F
:1021100003EA0223194381837047000000B589B0A8
:1021200001210420FFF768F801210820FFF784F857
:102130004FF44070ADF8200018208DF823000320E4
:102140008DF8220008A95248FEF79AFC40F283302D
:10215000ADF818000020ADF81400ADF81A00ADF885
:10216000160005A94B4800F0C9F86020ADF804003E
:102170000020ADF80C000120ADF806006420ADF899
:102180000A0001A94348FFF723FF08214148FFF750
:102190006FFF6020ADF804000020ADF80C000120B6
:1021A000ADF806006420ADF80A0001A93948FFF730
:1021B00069FF08213748FFF7A3FF01213548FFF7E2
:1021C00057FE01213348FFF765FE01210820FFF784
:1021D00013F801210420FFF72FF80420ADF82000A8
:1021E00018208DF8230003208DF8220008A92A4822
:1021F000FEF746FC0820ADF8200018208DF82300DB
:1022000003208DF8220008A92348FEF739FC40F28C
:102210008330ADF818000020ADF81400ADF81A00B6
:10222000ADF8160005A91D4800F068F86020ADF86B
:1022300004000020ADF80C000120ADF80600642079
:10224000ADF80A0001A91548FFF7C2FE082113489E
:10225000FFF70EFF6020ADF804000020ADF80C0081
:102260000120ADF806006420ADF80A0001A90B4872
:10227000FFF708FF08210948FFF742FF012107483F
:10228000FFF7F6FD01210548FFF704FE09B000BD88
:10229000000C01400008004000080140000C004014
:1022A00081847047028B4FF6F3731A400283028BCE
:1022B0000A4302837047028B4FF2FF331A400283B6
:1022C000028B4FF6FF7303EA01231A430283704720
:1022D000828B4FF6F3731A408283828B0A43828388
:1022E0007047828B4FF2FF331A408283828B4FF606
:1022F000FF7303EA01231A43828370470022028896
:102300001D4B98420ED01D4B98420BD0B0F1804F20
:1023100008D01B4B984205D01A4B984202D01A4B5A
:10232000984204D14FF68F731A404B881A43174BCB
:10233000984207D0164B984204D04FF6FF431A40FC
:10234000CB881A4302808B8883850B8803850A4BD0
:1023500098420BD0094B984208D00E4B984205D0BA
:102360000D4B984202D00D4B984201D10B7A038657
:102370000123838270470000002C0140003401409B
:102380000004004000080040000C00400010004025
:10239000001400400040014000440140004801405A
:1023A00000B585B001210820FEF746FF0121880411
:1023B000FEF722FF1F4800F0D5F84FF48060ADF81B
:1023C000100018208DF8130003208DF8120004A9C6
:1023D0001948FEF755FB4FF40060ADF81000482097
:1023E0008DF8130004A91448FEF74AFB4FF4E130BE
:1023F00000900020ADF80400ADF80600ADF808002C
:10240000ADF80C000C20ADF80A006946094800F050
:1024100053F9012240F22551064800F028F9012124
:10242000044800F092F84021024800F085F805B019
:1024300000BD000000480040000C014010B540F213
:102440002551384800F0E9F800286AD0354800F0F6
:102450009FF9354908703548008800F4004000288D
:102460005FD13248008800F48040A0B3084600786D
:102470000A2826D12D48007800F03F00082811D105
:102480002A48008840F400402849088028480078FD
:1024900040F00400264908700846007800F0F70074
:1024A00008703EE02248007840F00800204908709B
:1024B0000846007800F0FB00087000201B490880E7
:1024C0002FE01B48007840F00800194908700020F0
:1024D0001649088025E0FFE7134800780D2806D14B
:1024E0001248008840F480401049088019E00E48E6
:1024F00000780E490988C1F30D010E4A50540B486B
:102500000088401C0949088008460088C72808DD63
:102510000748007840F0080005490870002003498A
:10252000088010BD00480040B2010020B00100202A
:102530000C0000201402002001F40072B2F5007FAC
:1025400000D100BFCA430280704721B1828942F4A2
:102550000052828104E082894DF6FF731A40828125
:102560007047000010B504462048844209D101217B
:102570008803FEF771FE00214FF48040FEF76CFEE9
:1025800032E01B48844209D101214804FEF744FE91
:1025900000214FF40030FEF73FFE25E0154884424D
:1025A00009D101218804FEF737FE00214FF4802075
:1025B000FEF732FE18E01048844209D10121C80418
:1025C000FEF72AFE00214FF40020FEF725FE0BE067
:1025D0000A48844208D101210805FEF71DFE0021AA
:1025E0004FF48010FEF718FE10BD000000380140C7
:1025F0000044004000480040004C004000500040B3
:1026000002460020B1F5007F00D100BF13880B40C7
:102610000BB1012000E00020704770B50246002495
:1026200000230025002040F66A16B14200D100BF09
:10263000C1F3421501F01F03012606FA03F3012D31
:1026400002D19689334006E0022D02D1168A33402A
:1026500001E0968A33400C12012606FA04F416882B
:10266000344013B10CB1012000E0002070BDF0B582
:102670000346002400260025002040F66A17B942D0
:1026800000D100BF1846C1F3421401F01F06012714
:1026900007FA06F5012C01D10C3004E0022C01D11F
:1026A000103000E014301AB107682F43076002E0D1
:1026B0000768AF430760F0BD2DE9F04786B00546D7
:1026C0000E460024A24600BFA1460027B08900B1F3
:1026D00000BF2F462C8A4CF6FF700440F08804435C
:1026E0002C82AC894EF6F3100440B088318908433F
:1026F000718908430443AC81AC8A4FF6FF40044023
:10270000B0890443AC8201A8FEF7B6FD1F4887429A
:1027100002D1DDF810A001E0DDF80CA0A88900F4DA
:10272000004040B10AEBCA0000EB0A1031684900D2
:10273000B0FBF1F807E00AEBCA0000EB0A103168C1
:102740008900B0FBF1F86420B8FBF0F00401200927
:10275000642101FB1089A88900F4004040B13220B7
:1027600000EBC900B0FBF1F000F00700044308E003
:10277000322000EB09106421B0FBF1F000F00F00F3
:1027800004432C8106B0BDE8F0870000003801400A
:1027900001468888C0F308007047C1F308028280B0
:1027A000704700BFFEE7490050EAC12018BF04206F
:1027B0004A0D18BF40F0010040F2FF72B2EB515FCA
:1027C00008BF40F00200012808BF05207047000044
:1027D0002DE9F74F144694B00021C4E90211159970
:1027E000079121F00045C9498D4206DC1599C4E9DD
:1027F000000117B00020BDE8F08FC549DFF814A331
:10280000A9423CDD0799C44E0029C44FC44A15991A
:10281000534619DD01F084FA554506D0C14AC24B32
:1028200001F07EFAC4E900010AE04FF0D352BE4B3A
:1028300001F076FA32463B4601F072FAC4E9000133
:1028400017B00120BDE8F08F00F0FEFE554506D020
:10285000B44AB54B00F0F8FEC4E900010AE04FF0BD
:10286000D352B14B00F0F0FE32463B4600F0ECFE96
:10287000C4E9000117B04FF0FF30BDE8F08FAB495D
:10288000A942159978DB21F0004183468846A84A81
:10289000A84B01F03BF90022A74B00F0D5FE01F058
:1028A000DBF8099001F007F906460F469C4A5346AB
:1028B00001F02CF943465A4601F026FA80468A4632
:1028C000984A994B3046394601F020F92A0D0125E6
:1028D0000B924246534601F017FA032DC4E900015A
:1028E00039D00B98C1F30A51401A05EB4511113943
:1028F000814230DA9148C346784400EB0510CDF8A8
:102900000CA00C90D0E900233046394601F0FEF8C7
:1029100002460B46049106905846039901F000FACE
:1029200080468A4602460B465846039901F0F8F95C
:10293000049B069A01F0F4F983460C9803913946FA
:10294000D0E90223304601F0E1F85A46039B01F03A
:10295000E7F96D1CBDE707980028A2BF099817B0DA
:10296000BDE8F08F616881F000416160099817B09F
:102970004042BDE8F08FFFE784461598C1F313018C
:10298000C0F30A50A0F2F5304FEA601800F01F06BD
:10299000C6F12000139000200690079041F4801E9D
:1029A00005206D4676B1664A08EB00017A4452F87C
:1029B000213002EB8101B3404A68139922FA01F1F8
:1029C000194305E05F4908EB0002794451F82210F1
:1029D000A1FB0E27A1FB0C131A449A4234BF01231A
:1029E000002303EB070A05EB8003D3E901B70F448B
:1029F0008F4234BF0121002193448B4411B1934590
:102A000002D903E0934501D2012100E00021C3E98E
:102A100001B7514445F82010011EA0F10100C1DCAE
:102A20000298059F00F10050800F12900298DDE996
:102A30000356800001F03FF8834628460D9101F0CF
:102A400051F86FF01D0201F0F2FDCDE90E013046A4
:102A500001F048F86FF03D0201F0E9FD80468A463A
:102A6000384601F03FF86FF05D0201F0E0FD0746E7
:102A700042465346119100F0E7FDDDE90E2300F0D8
:102A8000E3FD5A460D9B00F0DFFD00250E465A4639
:102A900028460D9B01F044F9DDE90E2301F040F9D1
:102AA0004246534601F03CF93A46119B01F02CF99D
:102AB000DFF898A0244A534601F028F807468846D4
:102AC000234A244B3146284601F020F83A46434633
:102AD00000F0BAFD074688464FF0A84253463146FB
:102AE000284601F013F83A46434600F0ADFD159A2A
:102AF00012F0004F04D0129A81F00041524212921B
:102B0000C4E90001129817B0BDE8F08FFB21E93F3E
:102B10007CD90240FB21F93F7370032E8A19A33B35
:102B2000000040543163621A61B4D03DFB21394149
:102B300083C8C96D305FE43F0000E03FF41D000032
:102B4000701D0000521D0000182D4454FB21F93D5A
:102B50003326A611460B113C2DE9FF4D21F000480C
:102B600007460C46B8F1795F08DA00F075FF0028D7
:102B700001BF0020324904B0BDE8F08D3A4623463B
:102B80001046194600F0C2FF054602462D480E4683
:102B90000B460621784400F05DF82A46334600F0E3
:102BA000B5FFDDE9022382468B463846214600F018
:102BB000ADFF04460F4652465B462846314600F0BC
:102BC000A5FF22463B4601F0ABF807468A464FF088
:102BD000FF322846314601F02AFD1B4A90450ADAA9
:102BE0003A46534601F09CF804B00022BDE8F04D8F
:102BF000134B01F089B8154A4245A8BFA8F5001546
:102C00004FF00004B8BF124D22462B4601F088F861
:102C10000646884622462B460020094901F080F8E6
:102C200004460D463A4653463046414601F078F890
:102C300004B022462B46BDE8F04D01F065B8000017
:102C40000000F03F281B00003333D33F0000E93F72
:102C50000000D23F2DE9F0414F1E00EBC7010446B2
:102C6000D1E9000115461E4637F006020DD02A466E
:102C7000334600F04BFF7F1E04EBC703D3E900236C
:102C800000F0E2FC37F00602F1D1022F25D0042F2C
:102C900013D0062F18BFBDE8F0812A46334600F056
:102CA00035FFD4E90A2300F0CFFC2A46334600F072
:102CB0002DFFD4E9082300F0C7FC2A46334600F074
:102CC00025FFD4E9062300F0BFFC2A46334600F076
:102CD0001DFFD4E9042300F0B7FC2A46334600F078
:102CE00015FFD4E9022300F0AFFC2A46334600F07A
:102CF0000DFFD4E90023BDE8F04100F0A5BC0000C1
:102D00002DE9FF4D054621F0004084B00C46B0F19E
:102D1000795F0BDA2846FFF746FD042808BF00F06C
:102D20006FF8284608B02146BDE8F08D2A460B46CC
:102D3000104600F0EBFE06460F462A46234600F0FA
:102D4000E5FE804626488A4632463B4605217844C1
:102D5000FFF780FF83461098029160B3214A224B0F
:102D60004046514600F0D2FECDE900015A464046A9
:102D70005146029B00F0CAFE82468846DDE9060104
:102D80004FF0FF3201F053FC5246434600F0C8FFBB
:102D900032463B4600F0BAFEDDE9062300F0C0FFF4
:102DA000DDE9002300F0BCFF08B02A462346BDE859
:102DB000F04D00F0A9BF0B465A463046394600F0A8
:102DC000A5FE084A084B00F03FFC4246534600F07F
:102DD0009DFE08B02A462346BDE8F04D00F034BC05
:102DE000661A0000495555555555C5BF012201F0D9
:102DF0001EBC002213461046114600F0D5BC000050
:102E0000024A0020110701F012BC000001FDFFFF83
:102E100000BF70472DE9FF5F04460F4615461E466A
:102E200028480390039801F0C1F9009001F0FAF9E5
:102E30008346214601F056FA824601F0B7F9029026
:102E4000039801F0B3F9009001F0ECF9834639469C
:102E500001F048FA824601F0A9F90190039801F0C7
:102E6000A5F9009001F0DEF98346294601F03AFA0F
:102E7000824601F09BF98046039801F097F9009093
:102E800001F0D0F98346314601F02CFA824601F078
:102E90008DF9814642F2107102980844FEF756FA05
:102EA00042F2107101980844FDF7CCFF42F2107015
:102EB0004044FEF785FA42F210704844FDF7FCFFEB
:102EC000BDE8FF9F986E894100B5244B21F0004278
:102ED00087B09A42DCBF0022134629DD204B9A427C
:102EE00008D140B94FF00100FDF7D6FAFFF781FF96
:102EF00007B000BD03DBFFF779FF07B000BD02AAF2
:102F0000FFF766FC10F0030104BF0DF1080C9CE80C
:102F10000F000DD0012001290ED0022914D00DF18F
:102F2000080C00909CE80F00FFF7EAFE07B000BD18
:102F3000FFF712FE07B000BD0DF1080C00909CE8F1
:102F40000F00FFF7DDFE05E00DF1080C9CE80F0017
:102F5000FFF702FE07B081F0004100BDFB21E93F11
:102F60000000F07F10B56FF00400FEF7D9FA0A48B0
:102F700000680A49B0FBF1F009490870084600787A
:102F800000EB4001C1EBC0104FF6FF7101EAC00039
:102F90000449088010BD00002C00002000127A00B7
:102FA000B4010020B601002000BF054A128802F0DB
:102FB0004002002AF9D0C2B2014B1B1D1A80704793
:102FC000004800401FB5FFF7A9F8FFF7E9F9FFF740
:102FD000C9FFFDF7ADFFFDF7F2FFFDF743FDFEF77B
:102FE00077FE00260024A14600250CE186480078E3
:102FF00000F00100002850D084480068844908602F
:1030000084480068844908608448006884490860EE
:1030100084480068844908608448006884490860DE
:10302000002419E07A48005D824908557A48015D1C
:10303000804A201D11547A48015D04F108001154A2
:103040007948015D04F10C0011547948015D04F1E7
:1030500010001154601CC4B2042CE3DB0A20754933
:103060000875002611E040217348FFF765FA7148A2
:10307000815D7148FFF791FB00BF40216E48FFF76B
:10308000BFFA0028F9D0701CC6B2152EEBDB5E48E3
:10309000007800F0FE005C4908705B48007800F0A2
:1030A000020058B1654801686548006800F0DAF828
:1030B0005548007800F0FD005349087052480078E8
:1030C00000F0080048B340215B48FFF735FA4FF0A5
:1030D00000090EE000215848FFF75FFB00BF4021C8
:1030E0005548FFF78DFA0028F9D009F1010000F0EA
:1030F000FF09B9F1030FEDDB0A214F48FFF74DFB44
:1031000000BF40214C48FFF77BFA0028F9D03E4829
:10311000007800F0F7003C4908704A48008800F445
:103120000040002865D000250AE04748405D474937
:1031300048554549281D085C45494855681CC5B295
:10314000042DF2DB4149C87800F0CCFC0746414A27
:10315000414B00F0DBFC82468B463C4909786422F7
:1031600051433A4A527802EB820201EB4201374A5C
:103170009278881800F09FFC52465B46CDE900012A
:1031800000F062FACDE9020100F02CFA2F49086044
:103190002F49C87800F0A6FC07462E4A2E4B00F0B7
:1031A000B5FC82468B462A49097864225143284A55
:1031B000527802EB820201EB4201254A927888188C
:1031C00000F079FC52465B46CDE9000100F03CFA84
:1031D000CDE9020100F006FA1D4908601B480068AD
:1031E0001E4908601A4800681D49086000201549FA
:1031F0000880174F3B68154F3A68154F3968134FD1
:103200003868FFF707FEF1E60C00002038010020C7
:10321000180000203C0100201C000020400100207C
:10322000200000204401002024000020480100204C
:1032300028000020CC010020004800405C00002055
:1032400060000020B00100201402002014000020C3
:10325000100000209A9999999999B93F040000208B
:10326000080000202DE9F047044689469B48007875
:1032700018B39B4801689B48006801F033F8074683
:1032800099480168384601F02DF8054697480168CD
:103290009748006801F026F80646294600F0C4FE6B
:1032A00094490860944801689248006800F0BCFEA8
:1032B000924908600020894908704946204600F07C
:1032C00045FE05464FF07C5101F00CF88C49086032
:1032D0004946204601F004F98A49086000218A48DD
:1032E000006801F0CBF80ED200218848006801F098
:1032F000C5F808D28248006885490860814800689E
:103300008449086051E000217F48006800F0B6FF62
:1033100012D200217D48006800F0B0FF0CD278483E
:10332000006880F000407A4908607648006880F0C4
:1033300000407849086038E000217348006800F0D8
:103340009DFF14D200217148006801F097F80ED259
:103350006C48006880F000406D490860684801686A
:103360004FF0404000F0BEFF6A4908601DE00021B8
:103370006548006801F082F812D2002163480068B5
:1033800000F07CFF0CD25F480068614908605C482F
:1033900001684FF0804000F0A5FF5E49086004E03E
:1033A00000205B4908605B4908605448016859483F
:1033B000006800F097FF58490860084601685748C0
:1033C000006800F0C3FD55490860534801684FF09C
:1033D0007C5000F087FF054650480168284600F001
:1033E000B5FD4F4908600846006800F083FD0746B8
:1033F00000F0A8F8054600F0F5F84A49086048488A
:10340000006800F077FD0746FFF75EFD054600F017
:10341000E9F845490860084601683D48006800F041
:1034200061FF064633480168304600F05BFF054601
:103430003E480168284600F089FD3C49086039484B
:1034400001683348006800F04DFF064629480168CE
:10345000304600F047FF054635480168284600F031
:1034600075FD33490860234801682948006800F069
:1034700039FF05462F480168284600F0D5FD2E4942
:1034800008602C4801682448006800F0CDFD2B49F5
:103490000860164801682148006800F0EFFF08D274
:1034A000274801681D48006801F01AF81B490860A8
:1034B00011E00E48006880F0004518480168284671
:1034C00000F0DCFF07D21E4801681448006800F0D5
:1034D0003DFD12490860BDE8F08700009C01002016
:1034E00050010020700100205401002060010020E4
:1034F00058010020880100204C0100208C01002090
:103500009001002094010020040000200800002009
:10351000800100208401002074010020400100206F
:1035200098010020780100207C0100203801002053
:103530003C0100206C0100204401002048010020D3
:103540006801002000B5254B21F0004287B09A4267
:1035500003DC0022134600922BE0214B9A4208D153
:1035600040B94FF00100FCF797FFFFF742FC07B0AE
:1035700000BD03DBFFF73AFC07B000BD02AAFFF76E
:1035800027F910F003014FF001000DD0012914D0EC
:1035900002291AD00DF1080C9CE80F00FFF7DCFAA5
:1035A00007B081F0004100BD0DF1080C00909CE8CF
:1035B0000F00FFF7A5FB07B000BD0DF1080C9CE85C
:1035C0000F00FFF7C9FA07B000BD0DF1080C00901D
:1035D0009CE80F00FFF794FBE2E70000FB21E93FC6
:1035E0000000F07F21F00042A2F16052B2F5801F8E
:1035F00001F0004328BFD2F17F6C0BD95FEA001CB9
:1036000043EAC20242EB507018BF704728BF20F057
:1036100001007047B2F5801FBCBF184670474FEAE3
:10362000410C1CF5001F02D2084600F022BF70B505
:1036300000F016FB00000089FFF7F6BF4FF00040D6
:10364000A0F580007047000010B591EA030F48BF55
:1036500083F0004300F16C83841A71EB030C05D2F4
:10366000121943EB0C03001B61EB0C01DFF824E1A2
:103670004FEA1154A4EB135C1EEA430F18BF9EEAF5
:10368000445F73D023EA0E03DCF1200E21EA0451DB
:1036900043F4801332D322FA0CFE10EB0E0023FA0F
:1036A0000CFE41EB0E01CCF1200E03FA0EFE10EBE6
:1036B0000E0051F10001B1F5801FCCF1200E32D285
:1036C00001EB045112FA0EF2BDE8104058BF7047EA
:1036D000401C38BF5FEA420218BF7047002814BF81
:1036E00020F0010041F100014FEA410313F5001FF2
:1036F00038BF7047A1F1C04100F000BB012A43EB85
:103700000302ACF1200CDCF11F0E32BF4FF0000EB3
:1037100023FA0CF310EB030041EB0451B4EB115FFF
:10372000D0D0A1EB045101F5801149085FEA3000C7
:1037300001EB04510ED350F1000038BF12FA0EFE17
:1037400008D1BDE81040C9E7401C38BF5FEA42021B
:10375000CAD1C3E7BDE810404FEA410313F5001F8B
:1037600038BF7047A1F1C04100F0C8BA9EEA445F7B
:1037700008D011EA5E0FBDE8104004BF01F000411F
:1037800000207047BDE8104070B500F069FA00BF36
:1037900064FBBE3E0000E0FF02494FF0000000F075
:1037A00014BF00BF0000F87F2DE9C04130B4DFF83E
:1037B000A0C23CEA111418BF3CEA131400F0EC80DC
:1037C00081EA03051CEA111444EAD57418BF1CEA07
:1037D000131500F0C780A4EB05044FF0004545EA3F
:1037E000C12145EAC32341EA505143EA525304F14F
:1037F0007F74994204F500344FEAC0204FEAC22298
:1038000008BF904200F09C804FEA13650FF240160B
:10381000765D4FEA134506FB05F7C7F1807706FB97
:1038200007F74FEAD737A7FB03687642C8F5803819
:10383000A7FB06CE38BFA8F1010807FB08E64FF04A
:10384000000EA6FB028CE6FB03CEDCF1000CCEF1F1
:10385000004E38BFAEF1010EA6FB0C584FF000072A
:103860004FF00005E6FB0E87A1FB08C6A0FB07CEC4
:1038700016EB0E0645F10005E1FB076515F1E04E7C
:103880007EBFA4F580345FEA46066D4116F18007DD
:1038900045F100054FEA17274FEA066647EA056734
:1038A000A6F1DE46B6F1805F4FEA15251FD93846EE
:1038B00024F0010C05EBC471BCF1FE6F01EB0C119F
:1038C00002D8F0BCBDE8008124425CBF01F5801E37
:1038D0009EEAC47F02D4F0BCBDE80081244238D403
:1038E000F0BCA1F1C041BDE8004100F007BA4FEAC9
:1038F000D22242EA43524FEAD323A7FB02864FEA81
:10390000D02040EA415007FB03661EEA0E0F4FEA43
:10391000D12105FB026658BFA6EB0056B6EB005658
:103920004FEA520E4EEAC37E18EB0E0E56EB530EC4
:10393000BDD518EB02085E417F1C55F10005B6E7C6
:103940004FF480154FF000074FF000064FF00008CD
:10395000ADE7F0BC4FF0000001F1C04101F00041C3
:10396000BDE8008111EA0C1F0CEA131500D00CE031
:1039700013EA0C1F00F025804FF00000F0BC81EA34
:10398000030101F00041BDE80081F0BCBDE8004149
:1039900081EA030100F0B2B9F0BCBDE8004170B5A6
:1039A00000F05EF9097EFC3E00F007B881EA0301F1
:1039B0004FF0000001F00041704781EA030100F080
:1039C0009DB9F0BCBDE800414FF0000021497047AF
:1039D000FFFDFBF9F7F5F4F2F0EEEDEBE9E8E6E4D4
:1039E000E3E1E0DEDDDBDAD8D7D5D4D3D1D0CFCD5B
:1039F000CCCBCAC8C7C6C5C4C2C1C0BFBEBDBCBB94
:103A0000BAB9B8B7B6B5B4B3B2B1B0AFAEADACAB8E
:103A1000AAA9A8A8A7A6A5A4A3A3A2A1A09F9F9E68
:103A20009D9C9C9B9A99999897979695959493931A
:103A3000929191908F8F8E8E8D8C8C8B8B8A8989B1
:103A40008888878786858584848383828281818034
:103A50000000FF070000F87F4FEA41034FEA53538D
:103A6000A3F58063D3F11E03C8BFD3F1210C0CDD95
:103A70004FF0004242EAC12242EA505232FA03FCBD
:103A80008CEAE17CACEBE1707047102BC4BF0020E6
:103A9000704703F5787CBCF1FF3F04D06FF0004223
:103AA00082EA2100704770B500F0DAF8499224806C
:103AB00000207047F2E710F0004248BF4042B0FAE1
:103AC00080F310FA03F10AD0C3F11D0303F58063FC
:103AD0004FEA415002EB035202EBD12170474FF005
:103AE00000007047B0FA80F310FA03F10AD0C3F176
:103AF0001D0303F580634FEA41504FEA035202EB86
:103B0000D12170474FF0000070470000DFF848C136
:103B100070B51CEA111E1EBF1CEA13159EEA0C0F9D
:103B200095EA0C0F00F06F8081EA030423EA4C133E
:103B30004EEAD47E21EA4C1141F4801143F4801303
:103B4000AE44A1FB024CA0FB0365AEF17F7E3619AB
:103B500055EB0C05A1FB034C4CF10003A0FB021C30
:103B600016EB0C06654153F10003094218BF46F0FD
:103B7000010613F4007F0BD14FEA03314FEA053001
:103B8000340341EA155140EA16506FF003020AE08F
:103B90004FEAC3214FEAC520F40241EA555140EAF9
:103BA00056506FF0020202EB2E4201EB025585EAFD
:103BB000CE710AD05FEA440C18BF24F0004450F1E3
:103BC000000041F1000120EAD47040F2FE7C624521
:103BD00000D270BDA84214BF4FF080444FF0404463
:103BE000002E08BF0024BEF1806FA8BFA1F1C04124
:103BF000BDE8704080F282804FF0000001F1C041CA
:103C000001F0004170479EEA0C0F0CEA131518BF33
:103C100095EA0C0F06D04FF0000081EA030E0EF07B
:103C2000004170BD00F01CF88900013E00F007B8AB
:103C300000F009B84FEA430C5FEA5C5C08D081EA07
:103C4000030100F05BB84FEA410C5FEA5C5CF6D11F
:103C50004FF00000014970470000FF070000F87FA7
:103C60000EF1020E2EF0030E5EF8046B364205D400
:103C7000012A43EB030515F5001F12D8012841EB7B
:103C8000010C1CF5001F0CD80ED14FEAD17C15F5A4
:103C9000001F0CEB4C0C0CF1020C08BF4CEBD37C5E
:103CA00004E04FF0080C01E04FEAD37C0CEB4C052C
:103CB00026FA05F606F00706B6F1040C06D20EEB5E
:103CC000860CBDE870404CF0010C6047DFE80CF05A
:103CD000090B02024FF000414FF00000A1F5002156
:103CE00070BD19461046012851EB010418BFD4F5E8
:103CF000001484BF002001F0004170BD0808A0F549
:103D000000114FEA3101704791EA030F10B581F0BD
:103D100000413FF5A1AC83F0004300F009B800007A
:103D200010B591EA030F48BF83F000433FF594AC10
:103D3000841A71EB030C07D212198CF0004C43EB80
:103D40000C03001B61EB0C01DFF8A4E14FEA1154F6
:103D5000A4EB135C1EEA430F18BF9EEA445F00F019
:103D6000B08023EA6E03524221EA0451C3EB6E0392
:103D700038BF5B1EDCF1200E25D322FA0CFE10EBBF
:103D80000E0043FA0CFE41EB0E01CCF1200E03FABB
:103D90000EFE10EB0E0051F10001CCF1200E29D4E3
:103DA00012FA0EF201EB0451BDE8104058BF704703
:103DB000401C1CBFB2F1004F704700280CBF491CCB
:103DC00020F00100704712EB020E43EB030218BF14
:103DD0004FF0010E4EEA4202ACF1200CDCF11E0E57
:103DE00054D943FA0CFE10EB0E0051F1FF31CCF127
:103DF0001E0ED5D50EF1010E12FA0EFE404141EB1A
:103E0000010101EB445C5FEA5C5C10D910EBDE70F1
:103E100001EB045138BFBEF1004FBDE8104018BFA0
:103E2000704700280CBF491C20F00100704730D2B9
:103E30004FEAD42C11F5001124F400641BD0B1FA20
:103E400081F20B3AA41AA41ED2F12003914030FA59
:103E500003F31943904001EBCC71002C01EB0451AA
:103E6000BDE81040A8BF704701F1C0414FF000000D
:103E700001F000417047B0FA80F310FA03F100D16D
:103E800010BDE41A173C4805C90AE4E701EB0451E8
:103E900010BD491001EB0451BDE810404FEA30005D
:103EA00002E04FF0000170474A0008BF0042F8D01E
:103EB000B2F5001F28BF704701F000414FF000002D
:103EC00070479EEA445F07D011EA5E0FBDE81040DC
:103ED00004BF002100207047BDE8104070B5FFF717
:103EE000BFFE00BF40DFF63E83F000411046704742
:103EF0000000E0FF43004FEAD30C4FEA3C0C434084
:103F00001FBF40070CF1605113F0FE4F70471CF0CB
:103F1000006F03D100200CF0004170470CF000430B
:103F200043EA507010B540EACC0000F05CFA00BFE4
:103F3000000000924FEA0001FFF7E0BE4FF00041A1
:103F40004FF00000A1F500217047000090EA010F3A
:103F500048BF81F0004100F1CA82421A3CBF801A7A
:103F600089184FEAD0524FF07F4C1CEA410FA2EB68
:103F7000D15318BF9CEA026F00F03B804FF0004C19
:103F80004CEA00204CEA012121FA03FC10EB0C0C56
:103F90001ED202F1FF325FEA1C2040EBC25038BF54
:103FA00070471CF07F0F4FEA400C18BFBCF17F4FE9
:103FB00038BF7047C3F12003994008BF20F00100CB
:103FC000BCF17F4F38BF7047A0F1C04000F051BA3C
:103FD0004FEA3C00000A40EBC25028BF1CF0FF0F24
:103FE0004FEA400CE6D018BFBCF17F4F38BF704796
:103FF000EAE79CEA026F05D010EA5C0F08BF00F008
:104000000040704710B500F0EEF900BF64FBBE3E03
:10401000401058BFC0F14040491058BFC1F1404165
:104020008142EFF3008070474FF47F0C1CEAD012FE
:104030001EBF1CEAD11392EA0C0F93EA0C0F00F09A
:10404000858090EA010F48BF42F4807240F4000C72
:1040500041F400002CF07F4120F07F4000B5814208
:10406000A2EB03020FF2081CACEB504EC0F10000B3
:104070009EF800E04FEA4E0E00FB0EFC38BF4900F0
:104080004FEA2C1C02F5FA020CFB0EF34FEACE1E8F
:104090004FEA112C4FEAC1210EEB635E42EB224244
:1040A0000EFB0CFC4FEA1C5300FB03114FEA112CD2
:1040B0004FEA01310EFB0CFC4FEADC4C00FB0C110B
:1040C000C14228BF09184CEB03335DF804EB10EB39
:1040D000410143EBC250B2F57C0F38BF704729D580
:1040E00012F0F00F1CBF00F1C04000F0004070471C
:1040F000008182838485868788898B8C8D8E8F91C1
:104100009293959697999A9C9D9FA0A2A3A5A7A8E4
:10411000AAACAEB0B2B3B5B7B9BCBEC0C2C5C7C910
:10412000CCCED1D4D7D9DCDFE2E6E9ECF0F3F7FA74
:10413000FE0000004FEA400C0CF1807CBCF17E4F89
:1041400028BF7047B0F1C04000F093B990EA010F6A
:104150000CEAD11348BF42F48072624538BF634510
:1041600007D213F47F0F16D080EA010000F0004060
:10417000704710B500F037F9097EFC3E00F005B835
:1041800080EA010000F00040704780EA010000F082
:10419000004000F06EB912F47F0F04BF0248704770
:1041A00080EA010000F065B90000C07F41000B0EFD
:1041B000D3F19E0208D950F400034FEA032323FAF7
:1041C00002F048BF4042704710B500F00CF900BF44
:1041D00049922480002070476FF0004282EA20005C
:1041E00070470000C10DD1F19E0206DB4FEA0023AB
:1041F00043F0004323FA02F07047004207D54FEA2C
:104200004001B1F1FE4F02D24FF00000704710B5EF
:1042100000F0E9F849922480002070476FEA2000FE
:104220007047000010F0004148BF4042B0FA80F3F0
:1042300010FA03F2C3F19D030BD051EAC35101EB15
:104240001220530638BF704700F1010008BF20F06C
:1042500001007047B0FA80F310FA03F2C3F19D0336
:104260000AD0D90501EB1220530638BF704700F180
:10427000010008BF20F001007047000050EA010C67
:1042800000F113801CF5000F58BFBCF5000F01D4DE
:104290008842704707D710F5000F58BF11F5000F7F
:1042A00015D488427047894270471CF5000F04D529
:1042B000BCF5000FF7D5814270474FF0807C1CEBB6
:1042C000400F38BF1CEB410F01D28142704710B53F
:1042D00000F089F8922449004FF000504FF08051CF
:1042E000FFF796BE4FF47F0C1CEAD0121EBF1CEAEB
:1042F000D11392EA0C0F93EA0C0F00F0478090EA7A
:10430000010F48BF42F480724FF0004C4CEA00208D
:104310004CEA012102EB0302A0FB0113A2F500020B
:10432000002918BF43F001035B0028BF4FEA3303A5
:1043300042EB22425FEA132C4CEBC2502EBFBCEB87
:10434000436FB2F57C0F70474FEA036CBCF1004F2E
:1043500008BF20F00100B2F57C0F38BF70470BD5C5
:1043600082F0FF0212F5803FC8BF704700F1C040E5
:10437000D8BF00F00040704700F5000C5FEA4C0C1D
:1043800048BF7047B0F1C04000F073B890EA010F29
:104390000CEAD11348BF42F48072624538BF6345CE
:1043A00004D280EA010000F00040704710B500F030
:1043B0001AF800BF8900013E00F007B800F009B804
:1043C0005FEA410C5FEA1C6C08D080EA010000F053
:1043D00050B85FEA400C5FEA1C6CF6D14FF0004029
:1043E000A0F5800070470EF1020E2EF0030E5EF86D
:1043F000044B244204D44FEA4102B2F17F4F11D85A
:104400004FEA4003B3F17F4F0CD80ED14FEAD07C76
:10441000B2F17F4F0CEB4C0C0CF1020C08BF4CEBD3
:10442000D17C04E04FF0080C01E04FEAD17C0CEBAA
:104430004C0324FA03F404F00704B4F1040C06D28C
:104440000EEB840CBDE810404CF0010C6047DFE837
:104450000CF0070802024FF00040A0F5800010BDEC
:104460000846420018BFD2F1807288BF00F00040B9
:1044700010BDFF2141EAD050C005704751EA000C41
:1044800000F113801CF5000F58BFBCF5000F01D4DC
:104490008142704707D711F5000F58BF10F5000F84
:1044A00015D481427047894270471CF5000F04D52E
:1044B000BCF5000FF7D5884270474FF0807C1CEBAD
:1044C000410F38BF1CEB400F01D28842704780EA91
:1044D000010081EA000180EA0100FFF7F8BE000058
:1044E00090EA010F48BF81F000413FF536AD421A16
:1044F00004D882F00042A0EB020011444FEAD052EF
:104500004FF07F4C1CEA410FA2EBD15318BF9CEA3D
:10451000026F4AD04FF0004C4CEA00204CEA0121D7
:1045200021FA03FCB0EB0C0C0FD412F0FE0F36D0C6
:104530005FEA4C001DD5001240EBC25038BF7047F7
:104540001CF03F0F18BF70470BE0A2F101025FEAB9
:104550001C2040EBC25038BF70471CF07F0F18BFC3
:104560007047C3F12003994014BF401E20F00100A2
:10457000704780084FEA122308BF7047B0FA80FCEA
:10458000A2EB0C02CCF1280C60FA0CF093EA122F8B
:1045900004BF00EBC25070474FEAC3707047130A64
:1045A0005FEADC1008BF7047F6E79CEA026F04D0B0
:1045B00010EA5C0F08BF0020704710B5FFF713FF2B
:1045C00040DFF63E81F0004070470CF00F03092BEE
:1045D00008BF082000F059800A2B0BD0082B18BF09
:1045E000704708BF1CF0400F0AD04FF000004FF09A
:1045F000000170471CF0400F18BF4FF0004070479B
:104600001CF0100F08D020F0704300F07F4242EA07
:10461000D3014FEA4370704700F0604021F07F42C1
:1046200042EA000201F07F4040EA727070474FF0AA
:10463000FF0C4CF4E06C1CEA11531CBF9CEA030C09
:104640009445C2BFDA4201EB02517047002B0DD0F6
:10465000BCF1000F0FD0002A01F00041A4BF41F0CF
:10466000E04141F07F614FF00000704701F00041F0
:104670004FF00000704750EA01334FF09B0C18BF19
:104680004CF0806C7FF488A870471CF4801F11D018
:104690001CF4E02F03D06FEACC31490070474FF093
:1046A0004050EFF3008222F0704242EA000282F3AF
:1046B000008870474FF000007047000000000000C5
:1046C0004C5555555555A53F7751C1166CC156BF30
:1046D0009015CB19A001FA3EAD529C804F7E92BE40
:1046E000C4B1B4BD9EEE213ED43888BEE9FAA8BD5F
:1046F00000004054FB21F93F3163621A61B4D03DA0
:104700000000601A61B4D03D7370032E8A19A33B78
:104710000000002E8A19A33BC14920259A837B39CA
:1047200000000000000000006E83F9A22915444E2D
:10473000D15727FCC0DD34F5999562DB4190433CAD
:10474000AB6351FE61C5BBDE3A6E24B7E0D24D4289
:10475000EA2E49061C92D1091CEB1DFE3EA729B189
:10476000F53582E88444BB2E26709CE9417E5FB417
:1047700039D69139F43953838B5F849C3B28F9BD3A
:10478000FF97F81F0F9805DE8B112FEF1F6D0A5A48
:10479000CF7E366DB709CB27663F464F2DEA5F9E29
:1047A000C7BA27757BF1E5EBF739073DEA92528AE4
:1047B000B15FFB6B085D8D1FA6F810111111813FD1
:1047C000D561C119A0012ABF7DFEB157E31DC73EC7
:1047D000EB9C2B8AE6E55ABE7CD5CF5A3AD9E53D0B
:1047E0000048000800000020CC0100006C01000817
:1047F0006C480008CC01002074070000C8010008C4
:10480000022C0984A24A0408092B010203040607AA
:10481000080940012720090AD7233CCDCCCC3D0B09
:1048200082403F2401101A010101162348432380CE
:104830004023084220179642D80FC93FDC0F494059
:10484000E4CB9640DC0FC9400AD7A33B1AB41C093D
:104850002568511B104104A2C18A31202C02030497
:0C4860000400090006070809020406080D
:0400000508000131BD
:00000001FF
