:020000040800F2
:10000000380900200D020008F90D00087D0C0008D9
:10001000690D0008110400084F28000800000000C6
:100020000000000000000000000000008512000831
:10003000C9040008000000004510000899130008DA
:1000400027020008270200082702000827020008EC
:1000500027020008270200082702000827020008DC
:1000600027020008270200082702000827020008CC
:1000700027020008270200082702000827020008BC
:1000800027020008270200082702000827020008AC
:10009000270200082702000827020008270200089C
:1000A00027020008F11600082702000827020008AE
:1000B00011180008E51800082702000827020008A8
:1000C000270200082702000827020008270200086C
:1000D0002702000827020008270200084D24000814
:1000E000270200082702000827020008270200084C
:1000F000FD1C00082702000827020008270200084C
:10010000270200082702000827020008270200082B
:100110002702000827020008D11A0008211C000845
:10012000270200082702000827020008270200080B
:1001300000F002F800F05AF80AA090E8000C82449F
:100140008344AAF10107DA4501D100F04FF8AFF27C
:10015000090EBAE80F0013F0010F18BFFB1A43F0A5
:100160000103184704440000244400000A444FF0EF
:10017000000C10F8013B13F0070408BF10F8014B06
:100180001D1108BF10F8015B641E05D010F8016B4B
:10019000641E01F8016BF9D113F0080F1EBF10F8AF
:1001A000014BAD1C0C1B09D16D1E58BF01F801CBD2
:1001B000FAD505E014F8016B01F8016B6D1EF9D555
:1001C0009142D6D37047000000230024002500266A
:1001D000103A28BF78C1FBD8520728BF30C148BFAA
:1001E0000B6070471FB51FBD10B510BD00F0E2F8E1
:1001F0001146FFF7F7FF02F0D3FE00F000F903B459
:10020000FFF7F2FF03BC02F059FE000009488047E7
:1002100009480047FEE7FEE7FEE7FEE7FEE7FEE7E8
:10022000FEE7FEE7FEE7FEE704480549054A064B00
:10023000704700009D1300083101000838030020BA
:10024000380900203805002038050020704710B517
:100250004C1084EA530404D54042C1F1000138BF78
:10026000491E1B4204D55242C3F1000338BF5B1E36
:1002700000F015F814F0804F04D04042C1F10001A5
:1002800038BF491E14F0004F04D05242C3F100039E
:1002900038BF5B1E10BD704770477047704753EA08
:1002A000020C00F069802DE9F04B4FF00006002BA6
:1002B0001FBFB3FA83F503FA05F424FA05F65E408E
:1002C00012BF1643B2FA82F502FA05F4C5F1200511
:1002D0001EBF22FA05FC44EA0C04203556EA044C01
:1002E0004FEA144418BF641C4FF000084FF0000997
:1002F000904271EB030C39D3002919BFB1FA81F791
:1003000001FA07F6B0FA80F700FA07F6C7F12007FE
:100310001EBF20FA07FC46EA0C062037B6FBF4FCA9
:10032000A7EB0507103F07F01F0BCBF120060CFAD7
:100330000BFB2CFA06F644BFB3460026202FA4BFC1
:100340005E464FF0000B5BEA060C08BF4FF0010B56
:1003500019EB0B09ABFB027C48EB0608C01B06FB44
:1003600002CC0BFB03CC71EB0C01C1E70B46024640
:1003700041464846BDE8F08B13B54FF000004FF002
:100380000001AFF30080BDE81C40704710B500F0DD
:1003900009F8006810BD10B5044600F003F80460C9
:1003A00010BD000000487047D80200200048704788
:1003B000D80200207546FFF7F9FFAE4605006946F2
:1003C000534620F00700854618B020B5FFF72CFFF4
:1003D000BDE820404FF000064FF000074FF0000846
:1003E0004FF0000B21F00701AC46ACE8C009ACE8C7
:1003F000C009ACE8C009ACE8C0098D46704710B52B
:100400000446AFF300802046BDE81040FFF7F7BE7A
:1004100000BFFEE72DE9FF5F04460F4615461E4666
:1004200028480390039803F085FD009003F0BEFD7B
:100430008346214603F01AFE824603F07BFD0290BC
:10044000039803F077FD009003F0B0FD8346394632
:1004500003F00CFE824603F06DFD0190039803F05B
:1004600069FD009003F0A2FD8346294603F0FEFDDE
:10047000824603F05FFD8046039803F05BFD009029
:1004800003F094FD8346314603F0F0FD824603F00D
:1004900051FD814642F210710298084400F07EFE40
:1004A00042F210710198084400F0EAFB42F2107029
:1004B000404400F01FFC42F21070484400F0A8FED7
:1004C000BDE8FF9F986E8941704700002DE9FF5FEE
:1004D00000210C460D460E460F468846894602917D
:1004E00003918A461EE0604850F82A00041945EB43
:1004F000E0755E4850F82A00861947EBE0775C48C3
:1005000050F82A0010EB080849EBE079594850F8F8
:100510002A20DDE90201101841EBE273CDE9020364
:100520000AF1010ABAF1030FDDD3032200232046AA
:100530002946FFF78CFE04460D4603220023304671
:100540003946FFF784FE06460F4603220023404645
:100550004946FFF77CFE8046894603220023DDE9F9
:100560000201FFF774FECDE90201C8214FF0000C33
:100570002246A2FB013B05FB01B104FB0C103C220F
:10058000A3FB021B00FB02B003FB0C004FF4B47290
:100590006346CDE9001008460199FFF758FE04466E
:1005A000C8224FF0000C3346A3FB020B07FB02B13D
:1005B00006FB0C133C226146A0FB02CB03FB02B2FC
:1005C00000FB01204FF4B4720023CDE900C0604667
:1005D0000199FFF73CFE0646C8214FF0000C424649
:1005E000A2FB010B09FB01B108FB0C113C23A0FB92
:1005F000032B01FB03B100FB0C10CDE900204FF4ED
:10060000B4726346DDE90001FFF721FE8046C8238E
:100610004FF0000CDDE90201A0FB032B01FB03B14D
:1006200000FB0C133C216046A2FB01CB03FB01B194
:1006300002FB00104FF4B4720023CDE900C0604605
:100640000199FFF704FE029020B20B49086030B216
:100650000A4908600FFA88F009490860029800B258
:1006600008490860BDE8FF9FC8010020D4010020B0
:10067000E0010020EC0100204000002044000020A8
:10068000480000204C00002000200DE000210C4A12
:1006900042F820100B4A42F820100B4A42F8201072
:1006A0000A4A42F82010401C0328EFD30121084ACF
:1006B0001170084A1170084A1170084A1170704789
:1006C000C8010020D4010020E0010020EC0100203E
:1006D00068000020690000206A0000206B000020F4
:1006E00010B51948007810BB184802884FF08040B8
:1006F000838C0020154C20804FF08040008800F053
:100700001000102809D112480068181AC2EB021410
:1007100004EB4404A0EBC4010FE00D480068181A74
:10072000C2EB021404EB440400EBC40105E000201A
:10073000054C20700021054C20804FF08040808CBB
:10074000034C206008B210BD68000020500000205B
:100750002000002010B51848007808BB1748028810
:10076000174803880020154C20801548243800883D
:1007700000F01000102809D112480068181AC2EBC6
:10078000021404EB4404A0EBC4010FE00D48006820
:10079000181AC2EB021404EB440400EBC40105E098
:1007A0000020054C20700021044C20800448008863
:1007B000044C206008B210BD6900002052000020E7
:1007C000240400402400002010B51848007808BB1D
:1007D00017480288174803880020154C20801548C8
:1007E0002438008800F01000102809D11248006851
:1007F000181AC2EB021404EB4404A0EBC4010FE08E
:100800000D480068181AC2EB021404EB440400EB14
:10081000C40105E00020054C20700021044C20801C
:1008200004480088044C206008B210BD6A00002013
:1008300054000020242C01402800002010B5184846
:10084000007808BB17480288174803880020154C19
:10085000208015482438008800F01000102809D1A5
:1008600012480068181AC2EB021404EB4404C0EBEF
:10087000C4010FE00D480068181AC2EB021404EB23
:10088000440400EBC40105E00020054C2070002169
:10089000044C208004480088044C206008B210BD3D
:1008A0006B00002056000020243401402C00002062
:1008B00010B500F033FF00F0BFFF00F0BFFE01F005
:1008C000C5F901F0DFF8FFF7DFFE10BD2DE9F041BB
:1008D000024600250026002000230024002791F86E
:1008E00003C00CF00F0591F803C00CF0100CBCF124
:1008F000000F03D091F802C04CEA050591F800C042
:10090000BCF1000F31D0146800202BE04FF0010C37
:100910000CFA00F3B1F800C00CEA03069E4220D1A5
:1009200083004FF00F0C0CFA03F7BC4305FA03FCED
:100930004CEA040491F803C0BCF1280F06D14FF033
:10094000010C0CFA00FCC2F814C00AE091F803C0D4
:10095000BCF1480F05D14FF0010C0CFA00FCC2F8B5
:1009600010C0401C0828D1D31460B1F800C0BCF1FD
:10097000FF0F34DD546800202EE000F1080C4FF02A
:10098000010808FA0CF3B1F800C00CEA03069E4215
:1009900021D183004FF00F0C0CFA03F7BC4305FA8A
:1009A00003FC4CEA040491F803C0BCF1280F05D104
:1009B00000F1080C08FA0CF8C2F8148091F803C092
:1009C000BCF1480F07D100F1080C4FF0010808FAFC
:1009D0000CF8C2F81080401C0828CED35460BDE843
:1009E000F0810000F0B50A46002300240021002514
:1009F00000F00046B6F1004F02D11D4EF16901E052
:100A00001B4E7168C0F3034583B200F44016B6F57F
:100A1000401F08D121F07061154E766826F070668F
:100A2000134F7E6012E000F48016B6F5801F06D1E9
:100A3000032606FA05F4A14341F0706106E0460D75
:100A4000360103FA06F6B14341F0706122B1460D5A
:100A5000360103FA06F6314300F00046B6F1004FC6
:100A600002D1034EF16101E0014E7160F0BD000062
:100A700000000140416170470161704770B518483E
:100A8000006818490968401A174908601548006845
:100A900003F0A4FA05462946144800F05FFA04461C
:100AA00013480168204603F015F9114908601149FF
:100AB0000F48006803F0A6FB02D20E480C490860FC
:100AC00000210B48006803F09DFA02D2002008497B
:100AD00008600748006803F049FA0749088070BDBC
:100AE00044000020400000201800002044010020A5
:100AF00058000020000061453C08004070B51848CF
:100B0000006818490968401A1749086015480068C4
:100B100003F064FA05462946144800F01FFA04461B
:100B200013480168204603F0D5F8114908601149BF
:100B30000F48006803F066FB02D20E480C490860BB
:100B400000210B48006803F05DFA02D2002008493A
:100B500008600748006803F009FA0749088070BD7B
:100B60004000002044000020180000202001002048
:100B70005C000020000061454008004070B5184846
:100B8000006818490968401A174908601548006844
:100B900003F024FA05462946144800F0DFF904461C
:100BA00013480168204603F095F81149086011497F
:100BB0000F48006803F026FB02D20E480C4908607B
:100BC00000210B48006803F01DFA02D200200849FA
:100BD00008600748006803F0C9F90749088070BD3C
:100BE0004C00002048000020180000206801002070
:100BF00060000020000061453C0C004070B51848C2
:100C0000006818490968401A1749086015480068C3
:100C100003F0E4F905462946144800F09FF904461C
:100C200013480168204603F055F81149086011493E
:100C30000F48006803F0E6FA02D20E480C4908603B
:100C400000210B48006803F0DDF902D200200849BA
:100C500008600748006803F089F90749088070BDFB
:100C6000480000204C000020180000208C010020CB
:100C70006400002000006145400C004000BFFEE71A
:100C800010B5044642F2107084420FD9042117486F
:100C9000FFF7F0FE08211548FFF7EEFEA4F51C5003
:100CA000103803F09BF9124908621EE042F21070FE
:100CB00084420FD204210D48FFF7DEFE08210B48C5
:100CC000FFF7D8FE42F21071081B03F087F90849BC
:100CD00008620AE004210548FFF7CEFE0821034818
:100CE000FFF7CAFE00200249086210BD0010014053
:100CF0002001002010B5044642F2107084420FD942
:100D000010211748FFF7B6FE20211548FFF7B4FE63
:100D1000A4F51C50103803F061F9124908621EE076
:100D200042F2107084420FD210210D48FFF7A4FE4A
:100D300020210B48FFF79EFE42F21071081B03F0C2
:100D40004DF9084908620AE010210548FFF794FEB2
:100D500020210348FFF790FE00200249086210BDE1
:100D6000001001406801002000BFFEE708B5012126
:100D7000102000F089F90720ADF8000010208DF850
:100D8000030003208DF8020069461948FFF79EFD15
:100D900007211748FFF76EFE0121102000F074F9BB
:100DA0003820ADF8000010208DF8030003208DF8E6
:100DB000020069460E48FFF789FD38210C48FFF70D
:100DC00059FE0121202000F05FF9C020ADF800009D
:100DD00010208DF8030003208DF8020069460548B5
:100DE000FFF774FDC0210348FFF744FE08BD000073
:100DF0000010014000140140704708B54FF4A06096
:100E000000F09EF827208DF8000000208DF80100EA
:100E100001208DF802008DF80300684600F058F8B4
:100E20001C208DF8000001208DF8010002208DF8B3
:100E3000020001208DF80300684600F049F81D20EB
:100E40008DF8000001208DF801008DF802008DF86A
:100E50000300684600F03CF819208DF800000120DE
:100E60008DF8010000208DF8020001208DF80300AC
:100E7000684600F02DF82C208DF8000001208DF838
:100E8000010003208DF8020001208DF80300684660
:100E900000F01EF836208DF8000002208DF80100C9
:100EA00001208DF802008DF80300684600F010F86C
:100EB00037208DF8000003208DF8010001208DF807
:100EC00002008DF80300684600F002F808BD00003B
:100ED00070B5002100230F22C47804B3154C246898
:100EE00004F4E064C4F5E064210AC1F10403CA40DB
:100EF000447804FA03F184781440214309010E4C2C
:100F00000678A155047804F01F050124AC4005784B
:100F10006D11AD0005F1E025C5F8004109E0047848
:100F200004F01F050124AC40044D0678761145F805
:100F3000264070BD0CED00E000E400E080E100E040
:100F400002490143024A1160704700000000FA059F
:100F50000CED00E010B500F03DFE10BD2DE9F047AE
:100F600004460F46002003F021F880463946206AE7
:100F700003F07AF98246414602F0ACFEE060E16897
:100F8000206803F073F88146A06903F00FF88246E9
:100F9000E16802F09FFE804602F0CCFFA06121498B
:100FA000E069086020491F48006803F02BF905D369
:100FB0001E491C48006803F025F801D2002060603B
:100FC000A06902F0F3FF8046616803F04FF8054620
:100FD000D4E9030103F048F98046A16803F046F81C
:100FE0000646E06820612946484602F073FE8046C6
:100FF000314602F06FFEE0610D49E069096803F0D7
:1010000001F902D20A480068E0610A49E06909680A
:1010100002F0F8FF02D207480068E061E069BDE82D
:10102000F08700001C0100200000A0400000A0C0CC
:10103000140100201801002010B500F069FC00F038
:10104000C5FC10BD7047000029B1064AD2690243B1
:10105000044BDA6104E0034AD2698243014BDA614E
:10106000704700000010024029B1064A126902438D
:10107000044B1A6104E0034A12698243014B1A616E
:10108000704700000010024029B1064A92690243ED
:10109000044B9A6104E0034A92698243014B9A61CE
:1010A000704700000010024029B1064AD26802438E
:1010B000044BDA6004E0034AD2688243014BDA60F1
:1010C000704700000010024030B5002100220024CB
:1010D00000232D4D6D6805F00C0121B1042905D0C8
:1010E000082923D105E0294D056022E0274D056040
:1010F0001FE0254D6D6805F47012234D6D6805F4F1
:101100008034022505EB92421CB9214D5543056000
:101110000BE01D4D6D6805F400351DB11C4D5543A8
:10112000056002E0194D5543056002E0174D05606A
:1011300000BF00BF144D6D6805F0F0010909154DA1
:101140006B5C0568DD4045600F4D6D6805F4E0613E
:10115000090A104D6B5C4568DD4085600A4D6D687D
:1011600005F46051C90A0B4D6B5C4568DD40C560F4
:10117000054D6D6805F44041890B074D6B5CC568F2
:10118000B5FBF3F5056130BD0010024000127A0096
:1011900000093D00B4010020C401002010B5044640
:1011A00042F2107084420FD901211748FFF764FC06
:1011B00002211548FFF75EFCA4F51C50103802F020
:1011C0000DFF124908621EE042F2107084420FD2F5
:1011D00001210D48FFF74EFC02210B48FFF74CFCA4
:1011E00042F21071081B02F0F9FE084908620AE099
:1011F00001210548FFF740FC02210348FFF73CFCB2
:1012000000200249086210BD001001404401002086
:1012100010B5044642F2107084420FD9402117489D
:10122000FFF72AFC80211548FFF724FCA4F51C5089
:10123000103802F0D3FE124908621EE042F210702C
:1012400084420FD240210D48FFF714FC80210B4847
:10125000FFF712FC42F21071081B02F0BFFE0849B2
:1012600008620AE040210548FFF706FC8021034898
:10127000FFF702FC00200249086210BD0014014083
:101280008C010020704710B500F002F810BD00007E
:101290000CB50020019000903348006840F4803085
:1012A0003149086000BF3048006800F40030009009
:1012B0000198401C0190009818B90198B0F5A06FF2
:1012C000F1D12948006800F4003010B101200090ED
:1012D00001E0002000900098012843D123480068D5
:1012E00040F01000214908600846006820F0030023
:1012F00008600846006840F0020008601A4840682C
:10130000194948600846406848600846406840F40B
:10131000806048600846406820F47C1048600846B9
:10132000406840F4E81048600846006840F080706B
:10133000086000BF0C48006800F000700028F9D079
:101340000948406820F003000749486008464068A3
:1013500040F00200486000BF0348406800F00C0005
:101360000828F9D10CBD0000001002400020024006
:10137000042808D14FF0E021096941F004014FF041
:10138000E022116107E04FF0E021096921F004013A
:101390004FF0E022116170477047000010B513480C
:1013A000006840F001001149086008464068104993
:1013B00008400E494860084600680E4908400B493D
:1013C00008600846006820F48020086008464068ED
:1013D00020F4FE0048604FF41F008860FFF753FFC1
:1013E0004FF000600449086010BD0000001002408A
:1013F0000000FFF8FFFFF6FE08ED00E0F0B50C4638
:10140000154600220021068C4FF6FE773E400684EA
:10141000028B018C4FF60C7632407E1C06EA0316D6
:101420002E433243104EB0420ED0104EB0420BD07D
:10143000B0F1804F08D00E4EB04205D00D4EB042F4
:1014400002D00D4EB04206D14FF6FD76314044F049
:101450000106314305E04FF6F576314044F00106D0
:10146000314302830184F0BD002C0140003401406F
:101470000004004000080040000C0040F0B50C469D
:101480001546002200210026078C4FF6EF7C07EA64
:101490000C070784028B018C4FF6FF7707EA0416CE
:1014A00040F6FF473A404FF6FF7707EA03373A43E3
:1014B0004FF6FF7707EA05273A43114FB8420ED09F
:1014C000104FB8420BD0B0F1804F08D00E4FB84249
:1014D00005D00E4FB84202D00D4FB84206D14FF69C
:1014E000DF77394046F01007394305E04FF65F7764
:1014F000394044F01007394302830184F0BD0000F5
:10150000002C01400034014000040040000800406D
:10151000000C0040F0B50C461546002200210026C4
:10152000078C4FF6FF6C07EA0C070784828B018C4F
:101530004FF6FF7707EA04264FF60C773A404FF64E
:10154000FF7707EA03172F433A43114FB8420ED0F3
:10155000104FB8420BD0B0F1804F08D00E4FB842B8
:1015600005D00E4FB84202D00D4FB84206D14FF60B
:10157000FF57394046F48077394305E04FF2FF5773
:10158000394044F48077394382830184F0BD000000
:10159000002C0140003401400004004000080040DD
:1015A000000C0040F0B50C46154600220021002634
:1015B000078C4EF6FF7C07EA0C070784828B018CB0
:1015C0004FF6FF7707EA043640F6FF473A404FF6FA
:1015D000FF7707EA05273A434FF6FF7707EA033715
:1015E0003A43114FB8420ED0104FB8420BD0B0F171
:1015F000804F08D00E4FB84205D00E4FB84202D0EF
:101600000D4FB84206D14DF6FF77394046F480576A
:10161000394305E047F6FF57394044F480573943D2
:1016200082830184F0BD0000002C014000340140A1
:101630000004004000080040000C004000B587B0E6
:101640000121C802FFF720FD01210420FFF71CFD46
:101650004FF44070ADF8180004208DF81B000320F3
:101660008DF81A0006A92048FFF730F94FF6FF70F1
:10167000ADF810000020ADF80C00ADF81200ADF888
:101680000E008DF8140003A9184800F0D1FC0A23BD
:101690001A460321154800F065FB0020ADF8000054
:1016A0000A20ADF802000120ADF804000020ADF8DA
:1016B00006000120ADF8080069460C4800F084FBE4
:1016C00001210A4800F03CFB01221146074800F0C6
:1016D000D1FB0021054800F07CFC0121034800F00B
:1016E00035FB07B000BD000000080140002C0140A0
:1016F00010B50121074800F023FB074800884FF68A
:10170000FF71884204D004480088401C02490880C8
:1017100010BD0000002C01405400002000B587B02F
:1017200001210846FFF7B0FC01213548FFF75AF9BF
:1017300001210846FFF788FC01213248FFF752F9E2
:1017400001210420FFF7A0FC4FF40040ADF8180081
:1017500004208DF81B0003208DF81A0006A92A48E2
:10176000FFF7B4F801210820FFF78EFC0820ADF840
:10177000180004208DF81B0003208DF81A0006A91C
:101780002248FFF7A3F84FF6FF70ADF810000020D5
:10179000ADF80C00ADF81200ADF80E0003A94FF043
:1017A000804000F045FC0A231A460321580700F048
:1017B000D9FA0020ADF800000A20ADF8020001209F
:1017C000ADF804000020ADF806000120ADF80800D7
:1017D0006946800700F0F8FA0121880700F0B0FAA6
:1017E00001221146900700F045FB00214FF0804098
:1017F00000F0EFFB0121880700F0A8FA07B000BD58
:10180000000118000002300000080140000C0140F7
:1018100010B50121880700F093FA064800884FF6BA
:10182000FF71884204D003480088401C01490880A9
:1018300010BD00005000002000B587B0012102203B
:10184000FFF702FC01210420FFF71EFCC020ADF8C9
:10185000180004208DF81B0003208DF81A0006A93B
:101860001E48FFF733F84FF6FF70ADF81000002068
:10187000ADF80C00ADF81200ADF80E0003A9184841
:1018800000F0D6FB0A231A460321154800F06AFA35
:101890000020ADF800000A20ADF802000120ADF8EC
:1018A00004000020ADF806000120ADF808006946EC
:1018B0000B4800F089FA0121094800F041FA0122A1
:1018C0001146074800F0D6FA0021054800F081FBD8
:1018D0000121034800F03AFA07B000BD00080140BA
:1018E0000004004010B50121074800F029FA07481C
:1018F00000884FF6FF71884204D004480088401CDD
:101900000249088010BD0000000400405200002081
:1019100000B589B001210420FFF796FB01210820C2
:10192000FFF7B2FB4FF44070ADF8200018208DF89F
:10193000230003208DF8220008A92248FEF7C6FFE5
:1019400040F28330ADF818000020ADF81400ADF877
:101950001A00ADF8160005A91B4800F069FB6020CD
:10196000ADF804000020ADF80C000120ADF8060031
:101970006420ADF80A0001A9134800F085FA082197
:10198000114800F0D1FA6020ADF804000020ADF855
:101990000C000120ADF806006420ADF80A0001A992
:1019A000094800F0CBFA0821074800F005FB0121A7
:1019B000054800F0B9F90121034800F0C7F909B062
:1019C00000BD0000000C01400008004000B589B0D7
:1019D00001210820FFF738FB01210420FFF754FB09
:1019E0000C20ADF8200018208DF8230003208DF87E
:1019F000220008A92148FEF769FF40F28330ADF8C4
:101A000018000020ADF81400ADF81A00ADF816006B
:101A100005A91B4800F00CFB6020ADF80400002075
:101A2000ADF80C000120ADF806006420ADF80A0006
:101A300001A9134800F028FA0821114800F074FAAF
:101A40006020ADF804000020ADF80C000120ADF8D6
:101A500006006420ADF80A0001A9094800F06EFAFA
:101A60000821074800F0A8FA0121054800F05CF9B8
:101A70000121034800F06AF909B000BD00080140E7
:101A8000000C00400EB501211020FFF7DDFA4FF4E5
:101A90007A60ADF804000820ADF800000020ADF831
:101AA0000200ADF806006946084800F0C1FA0121BD
:101AB000064800F045F901221146044800F0DAF921
:101AC0000121024800F042F90EBD00000010004064
:101AD0002DE9F0410121334800F065F900285FD07D
:101AE0003148008828B130480088401E2E490880BF
:101AF00052E009202C490880FEF7F2FD0446FEF76B
:101B000029FE0546FEF760FE0646FEF797FE0746ED
:101B1000204602F04BFA25490860284602F046FAB2
:101B200023490860304602F041FA224908603846ED
:101B300002F03CFA204908602048007840F002009A
:101B40001E4908701E481F49097840F821401E4868
:101B50001C49097840F821501C481A49097840F876
:101B600021601B481749097840F821701548007812
:101B7000401C1449087008460078032801DB002047
:101B80000870FEF7A3FCFEF779FFFEF7B7FFFEF73C
:101B9000F5FFFFF733F800BF0121024800F0D3F84A
:101BA000BDE8F08100100040140000203400002047
:101BB00030000020380000203C0000208000002081
:101BC000C80100201C000020D4010020E0010020FA
:101BD000EC0100200EB501212020FFF735FA4FF46B
:101BE000FA70ADF8040041F61F40ADF80000002087
:101BF000ADF80200ADF806006946084800F018FA92
:101C00000121064800F09CF801221146034800F02B
:101C100031F90121014800F099F80EBD001400408F
:101C200010B50121074800F0BEF848B10648007819
:101C300040F00100044908700121024800F083F8D7
:101C400010BD0000001400408000002000B587B0E7
:101C500001214803FFF718FA01211020FFF714FAB9
:101C6000C020ADF8180004208DF81B0003208DF86B
:101C70001A0006A91F48FEF729FE4FF6FF70ADF8BF
:101C800010000020ADF80C00ADF81200ADF80E0009
:101C90008DF8140003A9184800F0CAF90A231A465F
:101CA0000321154800F05EF80020ADF800000A207E
:101CB000ADF802000120ADF804000020ADF80600E8
:101CC0000120ADF8080069460B4800F07DF80121BD
:101CD000094800F035F801221146074800F0CAF81B
:101CE0000021054800F075F90121034800F02EF8A5
:101CF00007B000BD001001400034014010B50121C3
:101D0000074800F01DF8074800884FF6FF71884229
:101D100004D004480088401C0249088010BD00001F
:101D2000003401405600002021B1028842F08002B8
:101D3000028004E002884FF67F731A4002807047E9
:101D4000CA4302827047CA430282704721B10288A7
:101D500042F00102028004E002884FF6FE731A404E
:101D600002807047F0B50C4615461E460021002241
:101D700000230189028B038C4FF6F8773940214309
:101D80004FF6FC473A4040F201173A434FF6DD77F1
:101D90003B404FF6FF7707EA06172F433B4301818D
:101DA00002830384F0BD30B50246002000230024E6
:101DB000158A05EA0103958905EA010413B10CB1FE
:101DC000012000E0002030BD70B505460C462448D7
:101DD00085420ED0234885420BD0B5F1804F08D004
:101DE0002148854205D02148854202D020488542BD
:101DF00000D100E000BF208850B92389A288618803
:101E00002846FFF7FBFAE188284600F0E4F825E0D1
:101E1000208804280AD12389A28861882846FFF7F0
:101E20002DFBE188284600F0DFF817E0208808281D
:101E30000AD12389A28861882846FFF76BFBE188D5
:101E4000284600F0DEF809E02389A2886188284648
:101E5000FFF7A8FBE188284600F0DCF870BD000021
:101E6000002C014000340140000400400008004004
:101E7000000C00401AB183890B43838102E08389FF
:101E80008B4383817047000070B50024002200233B
:101E9000058C4FF6FF6635400584028C8388848B61
:101EA0004FF68F752C404FF6FC752C400D882C4357
:101EB0004FF6FF552A400D894FF6FF7606EA0525B5
:101EC0002A434D8806EA05252A43154DA84202D02B
:101ED000144DA8421DD14FF2FF752A404D894FF68F
:101EE000FF7606EA05252A434FF6FF352A408D88FE
:101EF00006EA05252A434EF6FF752B404DF6FF7581
:101F00002B408D8906EA05152B43CD8906EA051578
:101F10002B4383808483CD888587028470BD000035
:101F2000002C0140003401400A460021818B4FF60D
:101F3000F7731940114381837047000070B5002288
:101F400000230024058C4EF6FF7635400584038C73
:101F50008488828B48F6FF752A404FF6FF452A4059
:101F60000D884FF6FF7606EA05252A434DF6FF75E4
:101F70002B400D8906EA05352B434D8806EA0535C9
:101F80002B430B4DA84202D00A4DA84208D14BF674
:101F9000FF752C408D894FF6FF7606EA85152C4398
:101FA00084808283CD88A0F84050038470BD0000F7
:101FB000002C0140003401400A460021818B4FF281
:101FC000FF7319404FF6FF7303EA0223194381831D
:101FD000704781847047028B4FF6F3731A40028377
:101FE000028B0A4302837047028B4FF2FF331A4081
:101FF0000283028B4FF6FF7303EA01231A43028325
:102000007047828B4FF6F3731A408283828B0A43A8
:1020100082837047828B4FF2FF331A408283828B18
:102020004FF6FF7303EA01231A43828370470000CF
:10203000002202881D4B98420ED01D4B98420BD0B7
:10204000B0F1804F08D01B4B984205D01A4B9842F4
:1020500002D01A4B984204D14FF68F731A404B8826
:102060001A43174B984207D0164B984204D04FF6AC
:10207000FF431A40CB881A4302808B8883850B88E4
:1020800003850A4B98420BD0094B984208D00E4B5F
:10209000984205D00D4B984202D00D4B984201D189
:1020A0000B7A03860123838270470000002C0140D5
:1020B000003401400004004000080040000C0040D3
:1020C0000010004000140040004001400044014066
:1020D000004801402DE9FC474FF0000ABE48007857
:1020E00000F0010000285ED0BC480068BC490860D0
:1020F000BC480068BC490860BC480068BC4908602E
:10210000BC480068BC490860BC480068BC4908601D
:1021100000BF21E0B24810F80A00BA4901F80A00ED
:10212000B14810F80A10B74A0AF104001154B04837
:1021300010F80A100AF108001154AF4810F80A10FC
:102140000AF10C001154AE4810F80A100AF1100000
:1021500011540F3800F0FF0ABAF1040FDADB0A203D
:10216000A84908754FF0000A14E04021A64800F085
:1021700039FAA44810F80A10A34800F064FB00BF25
:102180004021A14800F092FA0028F9D00AF101009C
:1021900000F0FF0ABAF1150FE7DB8F48007800F076
:1021A000FE008D4908708C48007800F0020078B17C
:1021B0009648036896480268964801689648006801
:1021C00000F012FF8448007800F0FD00824908709A
:1021D0008148007800F0080048B340218A4800F0A8
:1021E00001FA4FF0000A0EE00021874800F02BFBB7
:1021F00000BF4021844800F059FA0028F9D00AF1C4
:10220000010000F0FF0ABAF1030FEDDB0A217E485E
:1022100000F019FB00BF40217B4800F047FA00287E
:10222000F9D06D48007800F0F7006B4908707B48E2
:10223000008800F4004000287ED04FF0000A1DE026
:10224000774810F80A00774901F80A0074490AF142
:102250000400085C744901F80A0071490AF104009D
:10226000085C724901F80A006D4810F80A007049CC
:1022700001F80A000AF1010000F0FF0ABAF1040FA8
:10228000DEDB6849C87801F0F1FA0646694A6A4B14
:1022900001F000FBCDE90001624909786422514355
:1022A000604A527802EB820201EB42015D4A927869
:1022B000881801F0C4FA0446DDE9002301F088F82B
:1022C000804601F053F8574908605749C87801F033
:1022D000CDFA8046574A584B01F0DCFA04460D46C9
:1022E00051490978642251434F4A527802EB8202E5
:1022F00001EB42014C4A9278881801F0A0FA064698
:1023000022462B4601F064F8CDE9000101F02EF8D9
:10231000454908604549C87801F0A8FA0646454A8B
:10232000454B01F0B7FA04460D464049097864224E
:1023300051433E4A527800E04BE002EB820201EB4F
:1023400042013A4A9278881801F079FA804622468A
:102350002B4601F03DF8CDE9000101F007F83349C3
:1023600008603349C87801F081FA0646314A324B99
:1023700001F090FA04460D462D4909786422514334
:102380002B4A527802EB820201EB4201284A9278F2
:10239000881801F054FA804622462B4601F018F8BE
:1023A000CDE9000100F0E2FF214908601D48006806
:1023B000224908601C480068214908601B480068E1
:1023C000204908601A4800681F4908600020134926
:1023D0000880BDE8FC87000080000020AC000020E1
:1023E00098000020B00000209C000020B4000020D5
:1023F000A0000020B8000020A4000020BC000020A5
:10240000A8000020F8010020004800403C00002007
:10241000380000203000002034000020820000201E
:102420000D0200208C000020880000209000002079
:10243000940000209A9999999999B93F70000020C9
:10244000740000207C0000207800002010B540F2CD
:102450002551384800F037F900286AD0354800F097
:10246000EDF9354908703548008800F4004000282F
:102470005FD13248008800F48040A0B3084600785D
:102480000A2826D12D48007800F03F00102811D1ED
:102490002A48008840F400402849088028480078ED
:1024A00040F00400264908700846007800F0F70064
:1024B00008703EE02248007840F00800204908708B
:1024C0000846007800F0FB00087000201B490880D7
:1024D0002FE01B48007840F00800194908700020E0
:1024E0001649088025E0FFE7134800780D2806D13B
:1024F0001248008840F480401049088019E00E48D6
:1025000000780E490988C1F30D010E4A50540B485A
:102510000088401C0949088008460088C72808DD53
:102520000748007840F0080005490870002003497A
:10253000088010BD00480040840000208200002078
:10254000800000200D02002000B585B00121082088
:10255000FEF79AFD01218804FEF776FD1F4800F082
:1025600057F84FF48060ADF8100018208DF8130074
:1025700003208DF8120004A91948FEF7A7F94FF4BB
:102580000060ADF8100048208DF8130004A914482D
:10259000FEF79CF94FF4E13000900020ADF8040004
:1025A000ADF80600ADF80800ADF80C000C20ADF851
:1025B0000A006946094800F0D5F8012240F2255189
:1025C000064800F0AAF80121044800F014F8402160
:1025D000024800F007F805B000BD000000480040C8
:1025E000000C014001F40072B2F5007F00D100BF81
:1025F000CA430280704721B1828942F4005282812D
:1026000004E082894DF6FF731A4082817047000012
:1026100010B504462048844209D101218803FEF701
:1026200043FD00214FF48040FEF73EFD32E01B48A1
:10263000844209D101214804FEF716FD00214FF420
:102640000030FEF711FD25E01548844209D1012133
:102650008804FEF709FD00214FF48020FEF704FDF9
:1026600018E01048844209D10121C804FEF7FCFC9F
:1026700000214FF40020FEF7F7FC0BE00A488442EB
:1026800008D101210805FEF7EFFC00214FF480106E
:10269000FEF7EAFC10BD0000003801400044004095
:1026A00000480040004C004000500040024600201E
:1026B000B1F5007F00D100BF13880B400BB10120A2
:1026C00000E00020704770B502460024002300257A
:1026D000002040F66A16B14200D100BFC1F3421596
:1026E00001F01F03012606FA03F3012D02D196899A
:1026F000334006E0022D02D1168A334001E0968A6B
:1027000033400C12012606FA04F41688344013B143
:102710000CB1012000E0002070BDF0B5034600249C
:1027200000260025002040F66A17B94200D100BFFC
:102730001846C1F3421401F01F06012707FA06F5F7
:10274000012C01D10C3004E0022C01D1103000E04A
:1027500014301AB107682F43076002E00768AF43DF
:102760000760F0BD2DE9F04786B005460E4600240F
:10277000A24600BFA1460027B08900B100BF2F4686
:102780002C8A4CF6FF700440F08804432C82AC89FC
:102790004EF6F3100440B08831890843718908432C
:1027A0000443AC81AC8A4FF6FF400440B089044337
:1027B000AC8201A8FEF788FC1F48874202D1DDF8F1
:1027C00010A001E0DDF80CA0A88900F4004040B1A1
:1027D0000AEBCA0000EB0A1031684900B0FBF1F8BF
:1027E00007E00AEBCA0000EB0A1031688900B0FB71
:1027F000F1F86420B8FBF0F004012009642101FB2A
:102800001089A88900F4004040B1322000EBC900D3
:10281000B0FBF1F000F00700044308E0322000EBC9
:1028200009106421B0FBF1F000F00F0004432C818B
:1028300006B0BDE8F08700000038014001468888F6
:10284000C0F308007047C1F308028280704700BFE0
:10285000FEE7490050EAC12018BF04204A0D18BF06
:1028600040F0010040F2FF72B2EB515F08BF40F050
:102870000200012808BF0520704700002DE9F74F2E
:10288000144694B00021C4E902111599079121F072
:102890000045C9498D4206DC1599C4E9000117B00D
:1028A0000020BDE8F08FC549DFF814A3A9423CDD44
:1028B0000799C44E0029C44FC44A1599534619DDDF
:1028C00001F0F2F8554506D0C14AC24B01F0ECF8D0
:1028D000C4E900010AE04FF0D352BE4B01F0E4F826
:1028E00032463B4601F0E0F8C4E9000117B0012090
:1028F000BDE8F08F00F06CFD554506D0B44AB54BED
:1029000000F066FDC4E900010AE04FF0D352B14B7C
:1029100000F05EFD32463B4600F05AFDC4E900017E
:1029200017B04FF0FF30BDE8F08FAB49A9421599C1
:1029300078DB21F0004183468846A84AA84B00F086
:10294000A9FF0022A74B00F043FD00F049FF0990CA
:1029500000F075FF06460F469C4A534600F09AFF6A
:1029600043465A4601F094F880468A46984A994B65
:102970003046394600F08EFF2A0D01250B92424663
:10298000534601F085F8032DC4E9000139D00B98B6
:10299000C1F30A51401A05EB45111139814230DA71
:1029A0009148C346784400EB0510CDF80CA00C907C
:1029B000D0E900233046394600F06CFF02460B4652
:1029C000049106905846039901F06EF880468A46B5
:1029D00002460B465846039901F066F8049B069A96
:1029E00001F062F883460C9803913946D0E902233E
:1029F000304600F04FFF5A46039B01F055F86D1C1E
:102A0000BDE707980028A2BF099817B0BDE8F08F6E
:102A1000616881F000416160099817B04042BDE8EB
:102A2000F08FFFE784461598C1F31301C0F30A50F5
:102A3000A0F2F5304FEA601800F01F06C6F1200042
:102A4000139000200690079041F4801E05206D46EB
:102A500076B1664A08EB00017A4452F8213002EB65
:102A60008101B3404A68139922FA01F1194305E044
:102A70005F4908EB0002794451F82210A1FB0E27B0
:102A8000A1FB0C131A449A4234BF0123002303EB29
:102A9000070A05EB8003D3E901B70F448F4234BF27
:102AA0000121002193448B4411B1934502D903E0E5
:102AB000934501D2012100E00021C3E901B751444F
:102AC00045F82010011EA0F10100C1DC0298059F0D
:102AD00000F10050800F12900298DDE9035680004B
:102AE00000F0ADFE834628460D9100F0BFFE6FF06A
:102AF0001D0201F060FCCDE90E01304600F0B6FE8B
:102B00006FF03D0201F057FC80468A46384600F0DF
:102B1000ADFE6FF05D0201F04EFC074642465346A3
:102B2000119100F055FCDDE90E2300F051FC5A46EE
:102B30000D9B00F04DFC00250E465A4628460D9B85
:102B400000F0B2FFDDE90E2300F0AEFF424653462F
:102B500000F0AAFF3A46119B00F09AFFDFF898A018
:102B6000244A534600F096FE07468846234A244BE3
:102B70003146284600F08EFE3A46434600F028FCD7
:102B8000074688464FF0A84253463146284600F093
:102B900081FE3A46434600F01BFC159A12F0004FA6
:102BA00004D0129A81F0004152421292C4E900010D
:102BB000129817B0BDE8F08FFB21E93F7CD90240A5
:102BC000FB21F93F7370032E8A19A33B0000405488
:102BD0003163621A61B4D03DFB21394183C8C96DAC
:102BE000305FE43F0000E03FD01A00004C1A0000C4
:102BF0002E1A0000182D4454FB21F93D3326A6114E
:102C0000460B113C2DE9FF4D21F0004807460C46CC
:102C1000B8F1795F08DA00F0E3FD002801BF002079
:102C2000324904B0BDE8F08D3A46234610461946B5
:102C300000F030FE054602462D480E460B460621A2
:102C4000784400F05DF82A46334600F023FEDDE9C3
:102C5000022382468B463846214600F01BFE04467E
:102C60000F4652465B462846314600F013FE224688
:102C70003B4600F019FF07468A464FF0FF322846D0
:102C8000314601F098FB1B4A90450ADA3A46534612
:102C900000F00AFF04B00022BDE8F04D134B00F035
:102CA000F7BE154A4245A8BFA8F500154FF000042D
:102CB000B8BF124D22462B4600F0F6FE0646884667
:102CC00022462B460020094900F0EEFE04460D4640
:102CD0003A4653463046414600F0E6FE04B02246EE
:102CE0002B46BDE8F04D00F0D3BE00000000F03FE1
:102CF000041800003333D33F0000E93F0000D23F07
:102D00002DE9F0414F1E00EBC7010446D1E9000157
:102D100015461E4637F006020DD02A46334600F00F
:102D2000B9FD7F1E04EBC703D3E9002300F050FB7D
:102D300037F00602F1D1022F25D0042F13D0062F31
:102D400018BFBDE8F0812A46334600F0A3FDD4E960
:102D50000A2300F03DFB2A46334600F09BFDD4E9F0
:102D6000082300F035FB2A46334600F093FDD4E9F2
:102D7000062300F02DFB2A46334600F08BFDD4E9F4
:102D8000042300F025FB2A46334600F083FDD4E9F6
:102D9000022300F01DFB2A46334600F07BFDD4E9F8
:102DA0000023BDE8F04100F013BB00002DE9FF4D0A
:102DB000054621F0004084B00C46B0F1795F0BDA93
:102DC0002846FFF746FD042808BF00F06FF82846A4
:102DD00008B02146BDE8F08D2A460B46104600F0AB
:102DE00059FD06460F462A46234600F053FD80460D
:102DF00026488A4632463B4605217844FFF780FF45
:102E000083461098029160B3214A224B40465146B6
:102E100000F040FDCDE900015A4640465146029B74
:102E200000F038FD82468846DDE906014FF0FF32AA
:102E300001F0C1FA5246434600F036FE32463B46A8
:102E400000F028FDDDE9062300F02EFEDDE9002379
:102E500000F02AFE08B02A462346BDE8F04D00F0F7
:102E600017BE0B465A463046394600F013FD084A55
:102E7000084B00F0ADFA4246534600F00BFD08B097
:102E80002A462346BDE8F04D00F0A2BA42170000E2
:102E9000495555555555C5BF012201F08CBA002240
:102EA00013461046114600F043BB0000024A0020C2
:102EB000110701F080BA000001FDFFFF00BF70475D
:102EC00000B5244B21F0004287B09A42DCBF0022BB
:102ED000134629DD204B9A4208D140B94FF001003A
:102EE000FDF759FAFFF7DBFF07B000BD03DBFFF783
:102EF000D3FF07B000BD02AAFFF7C0FC10F003012A
:102F000004BF0DF1080C9CE80F000DD00120012931
:102F10000ED0022914D00DF1080C00909CE80F008F
:102F2000FFF744FF07B000BDFFF76CFE07B000BD20
:102F30000DF1080C00909CE80F00FFF737FF05E04B
:102F40000DF1080C9CE80F00FFF75CFE07B081F064
:102F5000004100BDFB21E93F0000F07F10B56FF09C
:102F60000400FEF705FA0A4800680A49B0FBF1F0D0
:102F7000094908700846007800EB4001C1EBC01019
:102F80004FF6FF7101EAC0000449088010BD00003F
:102F90000000002000127A00B0010020B2010020E1
:102FA000FFF7DCFFFEF748F8FFF7CEFAFDF7DEFE8D
:102FB000FDF723FFFDF77CFCFDF7CCFF0BE0FFF7EF
:102FC00089F8054C2368054C2268054C2168054C9E
:102FD0002068FDF71FFAF2E794000020900000201F
:102FE000880000208C0000202DE9F05F044689460F
:102FF00092469B469B48007818B39B4801689B48C3
:10300000006801F033F8074699480168384601F036
:103010002DF80546974801689748006801F026F8A2
:103020000646294600F0C4FE9449086094480168A9
:103030009248006800F0BCFE92490860002089496F
:1030400008704946204600F045FE05464FF07C5189
:1030500001F00CF88C4908604946204601F004F95B
:103060008A49086000218A48006801F0CBF80ED236
:1030700000218848006801F0C5F808D2824800683D
:1030800085490860814800688449086051E0002152
:103090007F48006800F0B6FF12D200217D4800682A
:1030A00000F0B0FF0CD27848006880F000407A4908
:1030B00008607648006880F000407849086038E091
:1030C00000217348006800F09DFF14D20021714870
:1030D000006801F097F80ED26C48006880F000405C
:1030E0006D490860684801684FF0404000F0BEFF3D
:1030F0006A4908601DE000216548006801F082F817
:1031000012D200216348006800F07CFF0CD25F48B7
:103110000068614908605C4801684FF0804000F039
:10312000A5FF5E49086004E000205B4908605B4938
:103130000860544801685948006800F097FF5849F2
:103140000860084601685748006800F0C3FD55490B
:103150000860534801684FF07C5000F087FF054637
:1031600050480168284600F0B5FD4F490860084600
:10317000006800F083FD074600F0A8F8054600F05F
:10318000F5F84A4908604848006800F077FD0746AE
:10319000FFF796FE054600F0E9F845490860084645
:1031A00001683D48006800F061FF06463348016849
:1031B000304600F05BFF05463E480168284600F0B7
:1031C00089FD3C490860394801683348006800F0CF
:1031D0004DFF064629480168304600F047FF054686
:1031E00035480168284600F075FD334908602348DA
:1031F00001682948006800F039FF05462F4801683A
:10320000284600F0D5FD2E4908602C480168244866
:10321000006800F0CDFD2B49086016480168214880
:10322000006800F0EFFF08D2274801681D480068D9
:1032300001F01AF81B49086011E00E48006880F0A0
:10324000004518480168284600F0DCFF07D21E48F8
:1032500001681448006800F03DFD12490860BDE8AF
:10326000F09F0000C0000020C8000020D80000200F
:10327000CC000020E0000020D0000020EC00002066
:10328000C4000020F0000020080100200C010020F4
:1032900070000020740000200001002004010020C4
:1032A000F4000020B400002010010020F8000020ED
:1032B000FC000020AC000020B0000020D400002062
:1032C000B8000020BC000020E800002000B5254B1D
:1032D00021F0004287B09A4203DC0022134600929C
:1032E0002BE0214B9A4208D140B94FF00100FDF785
:1032F00052F8FFF7D4FD07B000BD03DBFFF7CCFDAC
:1033000007B000BD02AAFFF7B9FA10F003014FF0B1
:1033100001000DD0012914D002291AD00DF1080C9A
:103320009CE80F00FFF76EFC07B081F0004100BD84
:103330000DF1080C00909CE80F00FFF737FD07B077
:1033400000BD0DF1080C9CE80F00FFF75BFC07B017
:1033500000BD0DF1080C00909CE80F00FFF726FD62
:10336000E2E70000FB21E93F0000F07F21F000428E
:10337000A2F16052B2F5801F01F0004328BFD2F1E4
:103380007F6C0BD95FEA001C43EAC20242EB50702B
:1033900018BF704728BF20F001007047B2F5801FAA
:1033A000BCBF184670474FEA410C1CF5001F02D203
:1033B000084600F022BF70B500F016FB000000893F
:1033C000FFF7F6BF4FF00040A0F580007047000007
:1033D00010B591EA030F48BF83F0004300F16C83FE
:1033E000841A71EB030C05D2121943EB0C03001B7A
:1033F00061EB0C01DFF824E14FEA1154A4EB135CFC
:103400001EEA430F18BF9EEA445F73D023EA0E03FF
:10341000DCF1200E21EA045143F4801332D322FA66
:103420000CFE10EB0E0023FA0CFE41EB0E01CCF16A
:10343000200E03FA0EFE10EB0E0051F10001B1F563
:10344000801FCCF1200E32D201EB045112FA0EF2A1
:10345000BDE8104058BF7047401C38BF5FEA4202C9
:1034600018BF7047002814BF20F0010041F100018F
:103470004FEA410313F5001F38BF7047A1F1C04167
:1034800000F000BB012A43EB0302ACF1200CDCF19D
:103490001F0E32BF4FF0000E23FA0CF310EB0300A7
:1034A00041EB0451B4EB115FD0D0A1EB045101F515
:1034B000801149085FEA300001EB04510ED350F14E
:1034C000000038BF12FA0EFE08D1BDE81040C9E76F
:1034D000401C38BF5FEA4202CAD1C3E7BDE81040D2
:1034E0004FEA410313F5001F38BF7047A1F1C041F7
:1034F00000F0C8BA9EEA445F08D011EA5E0FBDE84A
:10350000104004BF01F0004100207047BDE81040AA
:1035100070B500F069FA00BF64FBBE3E0000E0FF3A
:1035200002494FF0000000F014BF00BF0000F87F18
:103530002DE9C04130B4DFF8A0C23CEA111418BF35
:103540003CEA131400F0EC8081EA03051CEA111434
:1035500044EAD57418BF1CEA131500F0C780A4EB29
:1035600005044FF0004545EAC12145EAC32341EA7D
:10357000505143EA525304F17F74994204F50034E8
:103580004FEAC0204FEAC22208BF904200F09C8060
:103590004FEA13650FF24016765D4FEA134506FBBE
:1035A00005F7C7F1807706FB07F74FEAD737A7FB88
:1035B00003687642C8F58038A7FB06CE38BFA8F16D
:1035C000010807FB08E64FF0000EA6FB028CE6FBA5
:1035D00003CEDCF1000CCEF1004E38BFAEF1010E8F
:1035E000A6FB0C584FF000074FF00005E6FB0E87D6
:1035F000A1FB08C6A0FB07CE16EB0E0645F10005A1
:10360000E1FB076515F1E04E7EBFA4F580345FEA6B
:1036100046066D4116F1800745F100054FEA172770
:103620004FEA066647EA0567A6F1DE46B6F1805F17
:103630004FEA15251FD9384624F0010C05EBC4715B
:10364000BCF1FE6F01EB0C1102D8F0BCBDE80081AB
:1036500024425CBF01F5801E9EEAC47F02D4F0BC08
:10366000BDE80081244238D4F0BCA1F1C041BDE8DE
:10367000004100F007BA4FEAD22242EA43524FEA31
:10368000D323A7FB02864FEAD02040EA415007FB34
:1036900003661EEA0E0F4FEAD12105FB026658BFF2
:1036A000A6EB0056B6EB00564FEA520E4EEAC37E2A
:1036B00018EB0E0E56EB530EBDD518EB02085E410B
:1036C0007F1C55F10005B6E74FF480154FF0000759
:1036D0004FF000064FF00008ADE7F0BC4FF00000DF
:1036E00001F1C04101F00041BDE8008111EA0C1F69
:1036F0000CEA131500D00CE013EA0C1F00F0258033
:103700004FF00000F0BC81EA030101F00041BDE888
:103710000081F0BCBDE8004181EA030100F0B2B9CC
:10372000F0BCBDE8004170B500F05EF9097EFC3EDA
:1037300000F007B881EA03014FF0000001F00041FA
:10374000704781EA030100F09DB9F0BCBDE800417B
:103750004FF0000021497047FFFDFBF9F7F5F4F247
:10376000F0EEEDEBE9E8E6E4E3E1E0DEDDDBDAD81C
:10377000D7D5D4D3D1D0CFCDCCCBCAC8C7C6C5C47A
:10378000C2C1C0BFBEBDBCBBBAB9B8B7B6B5B4B391
:10379000B2B1B0AFAEADACABAAA9A8A8A7A6A5A47C
:1037A000A3A3A2A1A09F9F9E9D9C9C9B9A99999840
:1037B0009797969595949393929191908F8F8E8EE3
:1037C0008D8C8C8B8B8A8989888887878685858470
:1037D00084838382828181800000FF070000F87F5C
:1037E0004FEA41034FEA5353A3F58063D3F11E031D
:1037F000C8BFD3F1210C0CDD4FF0004242EAC122D8
:1038000042EA505232FA03FC8CEAE17CACEBE17004
:103810007047102BC4BF0020704703F5787CBCF1C3
:10382000FF3F04D06FF0004282EA2100704770B57C
:1038300000F0DAF84992248000207047F2E710F097
:10384000004248BF4042B0FA80F310FA03F10AD0B8
:10385000C3F11D0303F580634FEA415002EB0352AD
:1038600002EBD12170474FF000007047B0FA80F3AF
:1038700010FA03F10AD0C3F11D0303F580634FEA88
:1038800041504FEA035202EBD12170474FF0000044
:1038900070470000DFF848C170B51CEA111E1EBF5A
:1038A0001CEA13159EEA0C0F95EA0C0F00F06F80CE
:1038B00081EA030423EA4C134EEAD47E21EA4C1138
:1038C00041F4801143F48013AE44A1FB024CA0FBF1
:1038D0000365AEF17F7E361955EB0C05A1FB034C59
:1038E0004CF10003A0FB021C16EB0C06654153F1E2
:1038F0000003094218BF46F0010613F4007F0BD104
:103900004FEA03314FEA0530340341EA155140EAEA
:1039100016506FF003020AE04FEAC3214FEAC520B8
:10392000F40241EA555140EA56506FF0020202EBB0
:103930002E4201EB025585EACE710AD05FEA440CB3
:1039400018BF24F0004450F1000041F1000120EACA
:10395000D47040F2FE7C624500D270BDA84214BF14
:103960004FF080444FF04044002E08BF0024BEF1C9
:10397000806FA8BFA1F1C041BDE8704080F2828095
:103980004FF0000001F1C04101F0004170479EEA94
:103990000C0F0CEA131518BF95EA0C0F06D04FF068
:1039A000000081EA030E0EF0004170BD00F01CF82B
:1039B0008900013E00F007B800F009B84FEA430C57
:1039C0005FEA5C5C08D081EA030100F05BB84FEA73
:1039D000410C5FEA5C5CF6D14FF000000149704792
:1039E0000000FF070000F87F0EF1020E2EF0030E1C
:1039F0005EF8046B364205D4012A43EB030515F546
:103A0000001F12D8012841EB010C1CF5001F0CD837
:103A10000ED14FEAD17C15F5001F0CEB4C0C0CF1CC
:103A2000020C08BF4CEBD37C04E04FF0080C01E023
:103A30004FEAD37C0CEB4C0526FA05F606F0070698
:103A4000B6F1040C06D20EEB860CBDE870404CF0CB
:103A5000010C6047DFE80CF0090B02024FF0004157
:103A60004FF00000A1F5002170BD19461046012855
:103A700051EB010418BFD4F5001484BF002001F0FD
:103A8000004170BD0808A0F500114FEA31017047F0
:103A900091EA030F10B581F000413FF5A1AC83F02E
:103AA000004300F009B8000010B591EA030F48BFC9
:103AB00083F000433FF594AC841A71EB030C07D2FA
:103AC00012198CF0004C43EB0C03001B61EB0C0152
:103AD000DFF8A4E14FEA1154A4EB135C1EEA430F94
:103AE00018BF9EEA445F00F0B08023EA6E035242A2
:103AF00021EA0451C3EB6E0338BF5B1EDCF1200EDC
:103B000025D322FA0CFE10EB0E0043FA0CFE41EB1B
:103B10000E01CCF1200E03FA0EFE10EB0E0051F157
:103B20000001CCF1200E29D412FA0EF201EB04515F
:103B3000BDE8104058BF7047401C1CBFB2F1004F99
:103B4000704700280CBF491C20F00100704712EBA1
:103B5000020E43EB030218BF4FF0010E4EEA420281
:103B6000ACF1200CDCF11E0E54D943FA0CFE10EB24
:103B70000E0051F1FF31CCF11E0ED5D50EF1010E24
:103B800012FA0EFE404141EB010101EB445C5FEA99
:103B90005C5C10D910EBDE7001EB045138BFBEF154
:103BA000004FBDE8104018BF704700280CBF491CEB
:103BB00020F00100704730D24FEAD42C11F50011EB
:103BC00024F400641BD0B1FA81F20B3AA41AA41EAB
:103BD000D2F12003914030FA03F31943904001EBF6
:103BE000CC71002C01EB0451BDE81040A8BF704718
:103BF00001F1C0414FF0000001F000417047B0FA00
:103C000080F310FA03F100D110BDE41A173C480507
:103C1000C90AE4E701EB045110BD491001EB04515E
:103C2000BDE810404FEA300002E04FF0000170475D
:103C30004A0008BF0042F8D0B2F5001F28BF704705
:103C400001F000414FF0000070479EEA445F07D04A
:103C500011EA5E0FBDE8104004BF0021002070474C
:103C6000BDE8104070B5FFF7BFFE00BF40DFF63E75
:103C700083F00041104670470000E0FF43004FEA28
:103C8000D30C4FEA3C0C43401FBF40070CF160517E
:103C900013F0FE4F70471CF0006F03D100200CF0B2
:103CA000004170470CF0004343EA507010B540EA01
:103CB000CC0000F05CFA00BF000000924FEA000167
:103CC000FFF7E0BE4FF000414FF00000A1F50021EA
:103CD0007047000090EA010F48BF81F0004100F1F9
:103CE000CA82421A3CBF801A89184FEAD0524FF05C
:103CF0007F4C1CEA410FA2EBD15318BF9CEA026F24
:103D000000F03B804FF0004C4CEA00204CEA0121CF
:103D100021FA03FC10EB0C0C1ED202F1FF325FEA19
:103D20001C2040EBC25038BF70471CF07F0F4FEA99
:103D3000400C18BFBCF17F4F38BF7047C3F1200360
:103D4000994008BF20F00100BCF17F4F38BF704799
:103D5000A0F1C04000F051BA4FEA3C00000A40EB2D
:103D6000C25028BF1CF0FF0F4FEA400CE6D018BF2E
:103D7000BCF17F4F38BF7047EAE79CEA026F05D07D
:103D800010EA5C0F08BF00F00040704710B500F06B
:103D9000EEF900BF64FBBE3E401058BFC0F140408A
:103DA000491058BFC1F140418142EFF30080704794
:103DB0004FF47F0C1CEAD0121EBF1CEAD11392EA0A
:103DC0000C0F93EA0C0F00F0858090EA010F48BFBA
:103DD00042F4807240F4000C41F400002CF07F416A
:103DE00020F07F4000B58142A2EB03020FF2081CD5
:103DF000ACEB504EC0F100009EF800E04FEA4E0ED2
:103E000000FB0EFC38BF49004FEA2C1C02F5FA02F9
:103E10000CFB0EF34FEACE1E4FEA112C4FEAC121E4
:103E20000EEB635E42EB22420EFB0CFC4FEA1C538E
:103E300000FB03114FEA112C4FEA01310EFB0CFC81
:103E40004FEADC4C00FB0C11C14228BF09184CEBB7
:103E500003335DF804EB10EB410143EBC250B2F5C4
:103E60007C0F38BF704729D512F0F00F1CBF00F14E
:103E7000C04000F0004070470081828384858687BF
:103E800088898B8C8D8E8F919293959697999A9C19
:103E90009D9FA0A2A3A5A7A8AAACAEB0B2B3B5B788
:103EA000B9BCBEC0C2C5C7C9CCCED1D4D7D9DCDF5E
:103EB000E2E6E9ECF0F3F7FAFE0000004FEA400C0E
:103EC0000CF1807CBCF17E4F28BF7047B0F1C04040
:103ED00000F093B990EA010F0CEAD11348BF42F405
:103EE0008072624538BF634507D213F47F0F16D046
:103EF00080EA010000F00040704710B500F037F98B
:103F0000097EFC3E00F005B880EA010000F00040A8
:103F1000704780EA010000F0004000F06EB912F432
:103F20007F0F04BF0248704780EA010000F065B9C6
:103F30000000C07F41000B0ED3F19E0208D950F45F
:103F400000034FEA032323FA02F048BF40427047C0
:103F500010B500F00CF900BF499224800020704792
:103F60006FF0004282EA200070470000C10DD1F1DD
:103F70009E0206DB4FEA002343F0004323FA02F0DF
:103F80007047004207D54FEA4001B1F1FE4F02D21F
:103F90004FF00000704710B500F0E9F84992248016
:103FA000002070476FEA20007047000010F00041C9
:103FB00048BF4042B0FA80F310FA03F2C3F19D0308
:103FC0000BD051EAC35101EB1220530638BF7047A2
:103FD00000F1010008BF20F001007047B0FA80F343
:103FE00010FA03F2C3F19D030AD0D90501EB1220A8
:103FF000530638BF704700F1010008BF20F00100F0
:104000007047000050EA010C00F113801CF5000F0E
:1040100058BFBCF5000F01D48842704707D710F590
:10402000000F58BF11F5000F15D488427047894220
:1040300070471CF5000F04D5BCF5000FF7D5814281
:1040400070474FF0807C1CEB400F38BF1CEB410FDA
:1040500001D28142704710B500F089F892244900DE
:104060004FF000504FF08051FFF796BE4FF47F0C99
:104070001CEAD0121EBF1CEAD11392EA0C0F93EA7D
:104080000C0F00F0478090EA010F48BF42F48072A5
:104090004FF0004C4CEA00204CEA012102EB0302F5
:1040A000A0FB0113A2F50002002918BF43F0010391
:1040B0005B0028BF4FEA330342EB22425FEA132C36
:1040C0004CEBC2502EBFBCEB436FB2F57C0F704778
:1040D0004FEA036CBCF1004F08BF20F00100B2F5BD
:1040E0007C0F38BF70470BD582F0FF0212F5803F7E
:1040F000C8BF704700F1C040D8BF00F00040704713
:1041000000F5000C5FEA4C0C48BF7047B0F1C040AE
:1041100000F073B890EA010F0CEAD11348BF42F4E3
:104120008072624538BF634504D280EA010000F026
:104130000040704710B500F01AF800BF8900013E3A
:1041400000F007B800F009B85FEA410C5FEA1C6CA8
:1041500008D080EA010000F050B85FEA400C5FEA46
:104160001C6CF6D14FF00040A0F5800070470EF1B6
:10417000020E2EF0030E5EF8044B244204D44FEAE4
:104180004102B2F17F4F11D84FEA4003B3F17F4FA4
:104190000CD80ED14FEAD07CB2F17F4F0CEB4C0C17
:1041A0000CF1020C08BF4CEBD17C04E04FF0080C82
:1041B00001E04FEAD17C0CEB4C0324FA03F404F049
:1041C0000704B4F1040C06D20EEB840CBDE81040D9
:1041D0004CF0010C6047DFE80CF0070802024FF0DA
:1041E0000040A0F5800010BD0846420018BFD2F183
:1041F000807288BF00F0004010BDFF2141EAD0501E
:10420000C005704751EA000C00F113801CF5000F47
:1042100058BFBCF5000F01D48142704707D711F594
:10422000000F58BF10F5000F15D481427047894226
:1042300070471CF5000F04D5BCF5000FF7D5884278
:1042400070474FF0807C1CEB410F38BF1CEB400FD8
:1042500001D28842704780EA010081EA000180EAC9
:104260000100FFF7F8BE000090EA010F48BF81F09F
:1042700000413FF536AD421A04D882F00042A0EB6F
:10428000020011444FEAD0524FF07F4C1CEA410F1C
:10429000A2EBD15318BF9CEA026F4AD04FF0004CFA
:1042A0004CEA00204CEA012121FA03FCB0EB0C0C93
:1042B0000FD412F0FE0F36D05FEA4C001DD500126D
:1042C00040EBC25038BF70471CF03F0F18BF70471B
:1042D0000BE0A2F101025FEA1C2040EBC25038BFA4
:1042E00070471CF07F0F18BF7047C3F1200399403F
:1042F00014BF401E20F00100704780084FEA1223CF
:1043000008BF7047B0FA80FCA2EB0C02CCF1280C7D
:1043100060FA0CF093EA122F04BF00EBC250704712
:104320004FEAC3707047130A5FEADC1008BF70479A
:10433000F6E79CEA026F04D010EA5C0F08BF002089
:10434000704710B5FFF713FF40DFF63E81F00040E5
:1043500070470CF00F03092B08BF082000F05980AC
:104360000A2B0BD0082B18BF704708BF1CF0400F5A
:104370000AD04FF000004FF0000170471CF0400FD2
:1043800018BF4FF0004070471CF0100F08D020F00D
:10439000704300F07F4242EAD3014FEA4370704716
:1043A00000F0604021F07F4242EA000201F07F40CD
:1043B00040EA727070474FF0FF0C4CF4E06C1CEA5E
:1043C00011531CBF9CEA030C9445C2BFDA4201EBB7
:1043D00002517047002B0DD0BCF1000F0FD0002A06
:1043E00001F00041A4BF41F0E04141F07F614FF096
:1043F0000000704701F000414FF00000704750EAA4
:1044000001334FF09B0C18BF4CF0806C7FF488A8F0
:1044100070471CF4801F11D01CF4E02F03D06FEA0A
:10442000CC31490070474FF04050EFF3008222F04A
:10443000704242EA000282F3008870474FF00000A9
:1044400070470000000000004C5555555555A53FDC
:104450007751C1166CC156BF9015CB19A001FA3E19
:10446000AD529C804F7E92BEC4B1B4BD9EEE213E43
:10447000D43888BEE9FAA8BD00004054FB21F93FBA
:104480003163621A61B4D03D0000601A61B4D03D5E
:104490007370032E8A19A33B0000002E8A19A33BD8
:1044A000C14920259A837B390000000000000000EC
:1044B0006E83F9A22915444ED15727FCC0DD34F58F
:1044C000999562DB4190433CAB6351FE61C5BBDE15
:1044D0003A6E24B7E0D24D42EA2E49061C92D10929
:1044E0001CEB1DFE3EA729B1F53582E88444BB2EA6
:1044F00026709CE9417E5FB439D69139F4395383F3
:104500008B5F849C3B28F9BDFF97F81F0F9805DE51
:104510008B112FEF1F6D0A5ACF7E366DB709CB274F
:10452000663F464F2DEA5F9EC7BA27757BF1E5EBE4
:10453000F739073DEA92528AB15FFB6B085D8D1F28
:10454000A6F810111111813FD561C119A0012ABF30
:104550007DFEB157E31DC73EEB9C2B8AE6E55ABEB4
:104560007CD5CF5A3AD9E53D8845000800000020A7
:10457000C80100006C010008F4450008C8010020D3
:1045800070070000C80100081184A24A04000A5301
:104590000102030406070809091A010101180A3A71
:1045A0003158512348432380402308422796420A2A
:1045B000D7A33B1812B442D80FC93FDC0F4940E4DF
:1045C000CB9640DC0FC92001281B10410442C120BA
:1045D000090AD7233CCDCCCC3D0318403F096A24BF
:1045E00079F82C02030404000900060708090204F4
:0445F00006080000B9
:0400000508000131BD
:00000001FF
